:020000040800F2
:10000000005000206D010008AD010008AD0100089E
:10001000AD010008AD010008AD01000800000000BE
:10002000000000000000000000000000AD0100081A
:10003000AD01000800000000AD010008AD0100089E
:10004000AD010008AD010008AD010008AD010008D8
:10005000AD010008AD010008AD010008AD010008C8
:10006000AD010008AD010008AD010008AD010008B8
:10007000AD010008AD010008AD010008AD010008A8
:10008000AD010008AD010008AD010008AD01000898
:1000900059090008AD010008AD010008AD010008D4
:1000A000AD010008AD010008AD010008AD01000878
:1000B000AD010008AD010008AD010008AD01000868
:1000C000AD010008AD010008AD010008AD01000858
:1000D000AD010008AD010008AD010008AD01000848
:1000E000AD010008AD010008AD0100085FF808F19E
:1000F00030BF704720BF704740BF7047BFF36F8F5E
:100100007047BFF34F8F7047BFF35F8F704701DFBA
:100110007047EFF31480704780F31488BFF36F8F3C
:100120007047EFF30980704780F309887047EFF359
:100130000880704780F30888704762B6704772B6CF
:100140007047EFF31080704761B6704771B6704723
:10015000EFF31380704780F311887047EFF312803C
:10016000704740BA704700BA70470000002103E0B2
:10017000094B5B58435004310848094B42189A42D6
:10018000F6D3084A02E0002342F8043B064B9A42A9
:10019000F9D300F0B1FC7047783B00080000002064
:1001A000D4010020D401002024060020FEE7000036
:1001B00080B582B000AF41F21803C4F202031B689D
:1001C0007B607B6843F010037B6041F21803C4F24C
:1001D00002037A681A6041F20403C4F201031B6847
:1001E0007B607B6823F470237B607B6843F4A023EF
:1001F0007B604FF48050C4F201004FF00C0100F01E
:1002000013FD41F20403C4F201037A681A604FF44B
:100210008053C4F202034FF48052C4F20202D26946
:1002200042F40002DA614FF48050C4F201004FF052
:100230000C0100F00FFD00F00BF807F10807BD46B8
:1002400080BD00BF80B400AFBD4680BC704700BF1A
:1002500080B500AF02F0EAF9BD4680BD80B483B03E
:1002600000AF45F64043C4F200031B68FB80FB88E7
:1002700043F00C03FB8045F64043C4F20003FA88C8
:100280001A6040F22463C2F200034FF003021A60C6
:1002900007F10C07BD4680BC704700BF80B483B037
:1002A00000AF45F64043C4F200031B68FB80FB88A7
:1002B00023F00403FB8045F64043C4F20003FA88B0
:1002C0001A6045F64043C4F200034FF43F421A60FF
:1002D00007F10C07BD4680BC704700BF80B584B0F5
:1002E00000AF0346FB71FB79072B05D040F2D81312
:1002F000C2F20003FA791A7040F2D813C2F2000376
:100300001B78DBB2052B00F29D8001A252F823F08E
:10031000290300083D030008510300086F0300088B
:10032000AB030008E9030008FFF7B8FF40F2D81359
:10033000C2F200034FF006021A708FE0FFF7AEFF23
:1003400040F2D813C2F200034FF004021A7085E0A5
:1003500040F2D813C2F200034FF002025A7040F28A
:10036000D813C2F200034FF003021A7076E040F295
:10037000D813C2F200035B78DBB203F1FF33DAB2C9
:1003800040F2D813C2F200035A7040F2D813C2F2FE
:1003900000035B78DBB2002B5DD140F2D813C2F2D0
:1003A00000034FF004021A7058E045F64043C4F2CF
:1003B00000031B68FB81FB8943F01003FB8145F6BA
:1003C0004043C4F20003FA891A6040F2D813C2F223
:1003D00000034FF005021A7040F2D813C2F2000376
:1003E0004FF00A025A7039E040F2D813C2F200030B
:1003F0005B78DBB203F1FF33DAB240F2D813C2F21A
:1004000000035A7040F2D813C2F200035B78DBB2EB
:10041000002B22D145F64043C4F200031B68FB8148
:10042000FB8923F01003FB8145F64043C4F200032F
:10043000FA891A6040F2D813C2F200034FF00602A4
:100440001A700BE040F2D813C2F200034FF006021C
:100450001A7000BF02E000BF00E000BF07F1100704
:10046000BD4680BD80B483B000AF4FF00103FB8078
:1004700045F64043C4F20003FA881A6040F21C6358
:10048000C2F200034FF000021A8045F64043C4F266
:10049000000340F21C62C2F2000212881A6045F6A4
:1004A0004443C4F200034FF000021A6040F21C63A0
:1004B000C2F200034FF4E0521A8045F64043C4F202
:1004C000000340F21C62C2F2000212881A604FF070
:1004D0000003184607F10C07BD4680BC704700BFFB
:1004E00080B500AF00F04AFF40F21863C2F200038B
:1004F0001B684FF000029A72FFF7B4FF45F64443C1
:10050000C4F200034FF000021A6040F21C63C2F212
:1005100000034FF43F421A8045F64043C4F2000303
:1005200040F21C62C2F2000212881A6000F0E4F984
:1005300040F22463C2F200034FF000021A60BD468D
:1005400080BD00BF98B500AF01F086FA40F2186395
:10055000C2F200031B684FF000029A7240F2186367
:10056000C2F200031A6840F2E803C2F200031B68FB
:1005700003F107031B78537245F65043C4F200039E
:100580004FF000021A604FF4B843C4F200034FF476
:10059000B842C4F20002126892B222F4EC4222F095
:1005A000700292B242F4007292B292B21A604FF4A8
:1005B000B843C4F200031B689BB223F4E04323F06A
:1005C00040039CB284F010039CB24FF4B843C4F2D1
:1005D000000322461A6045F65043C4F200031B682C
:1005E0009BB21A4643F20403C2F2000313444FEADB
:1005F00043034FF040021A6045F65043C4F2000333
:100600001B689BB203F1005303F540534FEA4303C9
:100610004FF080021A604FF0000001F009FC40F238
:10062000F053C2F200031B6893F830304FF0000023
:10063000194601F0DBFC4FF0000001F0D1FB40F265
:100640002463C2F200034FF001021A604FF0000071
:1006500003F0D4F9BD4698BD80B400AFBD4680BC60
:10066000704700BF80B400AFBD4680BC704700BF7C
:1006700080B584B000AF0346FB714FF00003FB6010
:1006800040F21863C2F200031B681B7803F07F037B
:10069000212B30D100F0CEFE0346002B2BD0FB796E
:1006A00003F1FF33042B25D801A252F823F000BF39
:1006B000DD060008E9060008C5060008F506000882
:1006C000D106000841F61133C0F60003FB6012E0CA
:1006D00041F6D923C0F60003FB600CE041F64D3330
:1006E000C0F60003FB6006E041F6C933C0F6000324
:1006F000FB6000E000BFFB68002B15D040F21863E0
:10070000C2F200031B68FA689A6140F21863C2F2F1
:1007100000031B684FF000025A82FB684FF0000094
:1007200098474FF0000301E04FF00203184607F12D
:100730001007BD4680BD00BF80B582B000AF034644
:10074000FB7140F21863C2F200031B681B7803F0D0
:100750007F03212B07D100F06DFE0346002B02D052
:100760004FF0000301E04FF00203184607F10807BD
:10077000BD4680BD80B483B000AF02460B46FA711F
:10078000BB71FB79022B02D94FF0020301E04FF05D
:100790000003184607F10C07BD4680BC704700BF38
:1007A00080B582B000AF0346FB80FB88184640F25C
:1007B000A801C2F2000102F0E7FA0346184607F169
:1007C0000807BD4680BD00BF80B582B000AF0346BC
:1007D000FB80FB88184640F2E801C2F2000102F0FB
:1007E000D3FA0346184607F10807BD4680BD00BF8F
:1007F00080B584B000AF0346FB8040F21863C2F2BC
:1008000000031B68DB78FB73FB7B062B02D94FF0E0
:1008100000030DE0FB7B4FEAC30240F2A013C2F2DB
:1008200000031344FA881046194602F0ADFA034655
:10083000184607F11007BD4680BD00BF80B582B0E5
:1008400000AF0346FB80FB88184640F2BC01C2F2B1
:10085000000102F099FA0346184607F10807BD4661
:1008600080BD00BF80B400AFBD4680BC704700BFF4
:1008700080B400AF40F21863C2F200031B689B7A99
:10088000002B06D040F22463C2F200034FF00502B1
:100890001A60BD4680BC704780B400AFBD4680BCC6
:1008A000704700BF80B400AFBD4680BC704700BF3A
:1008B00080B400AFBD4680BC704700BF80B400AFBD
:1008C000BD4680BC704700BF80B400AFBD4680BC51
:1008D000704700BF80B400AFBD4680BC704700BF0A
:1008E00080B400AF40F22463C2F200034FF0040270
:1008F0001A60BD4680BC704780B582B000AF4FF033
:1009000014033B714FF000037B714FF00003BB7188
:100910004FF00103FB7107F10403184600F08EFB52
:1009200007F10807BD4680BD80B582B000AF4FF02B
:1009300014033B714FF000037B714FF00003BB7158
:100940004FF00003FB7107F10403184600F076FB3B
:1009500007F10807BD4680BD80B500AF45F64443AA
:10096000C4F200031B689AB240F2D413C2F200032F
:100970001A8040F2D413C2F200031B889BB203F426
:10098000806240F21C63C2F200031B8802EA030388
:10099000002B0CD045F64443C4F200034FF6FF325F
:1009A0001A6040F20403C2F200035B68984740F209
:1009B000D413C2F200031B889BB203F4005240F22E
:1009C0001C63C2F200031B8802EA0303002B06D05B
:1009D00045F64443C4F200034DF6FF721A6040F23C
:1009E000D413C2F200031B889BB203F4805240F27E
:1009F0001C63C2F200031B8802EA0303002B0AD027
:100A000045F64443C4F200034EF6FF721A604FF0FD
:100A10000000FFF763FC40F2D413C2F200031B880E
:100A20009BB203F4006240F21C63C2F200031B8815
:100A300002EA0303002B08D0FFF710FC45F64443FD
:100A4000C4F200034FF2FF721A6040F2D413C2F2F4
:100A500000031B889BB203F4007240F21C63C2F2D5
:100A600000031B8802EA0303002B14D045F644431D
:100A7000C4F200034FF6FF521A6040F22863C2F23C
:100A800000031B78DBB203F10103DAB240F2286302
:100A9000C2F200031A7040F2D413C2F200031B88A2
:100AA0009BB203F4807240F21C63C2F200031B8805
:100AB00002EA0303002B0AD045F64443C4F20003C4
:100AC0004FF6FF621A604FF00700FFF707FC40F295
:100AD000D413C2F200031B889BB203F4004240F21D
:100AE0001C63C2F200031B8802EA0303002B01D03F
:100AF00001F0E4FABD4680BD80B582B000AF00F0E1
:100B00001FF900F06BF900F0C5F9FFF751FB00F099
:100B1000FBF900F025FA4FF40060C4F201004FF039
:100B200005014FF005024FF4A02300F0C9F84FF47F
:100B3000A040C0F6000000F03FFA0346002B08D1A9
:100B40004FF44060C2F2000000F036FA0346002B7A
:100B50000AD04FF48050C4F201004FF0090100F0B8
:100B600091F80346002B02D04FF0010301E04FF053
:100B70000003FB704FF000037B6012E04FF4006055
:100B8000C4F201004FF005014FF001024FF4801351
:100B900000F096F801F0A4F80346002B01D001F014
:100BA000ABF87B68052BCCBF00230123DBB27A684E
:100BB00002F101027A60002BE0D1FB78002BDDD13D
:100BC0004FF44060C2F2000000F0F6F90346002B3B
:100BD00006D04FF44060C2F2000000F009FA1DE0B8
:100BE0004FF4A040C0F6000000F0E6F90346002BE9
:100BF00006D04FF4A040C0F6000000F0F9F90DE077
:100C00004FF40060C4F201004FF005014FF00502FF
:100C10004FF4A02300F054F800F0D0FA184607F182
:100C20000807BD4680BD00BF80B485B000AF7860C6
:100C30000B46FB70FB784FF0010202FA03F3FB60F6
:100C40007B6803F11003FA681A6007F11407BD46C8
:100C500080BC704780B485B000AF78600B46FB70F5
:100C6000FB7803F110034FF0010202FA03F3FB607B
:100C70007B6803F11003FA681A6007F11407BD4698
:100C800080BC704780B483B000AF78600B46FB70C7
:100C90007B6803F108031A68FB784FF0010101FA41
:100CA00003F302EA0303002B02D04FF0010301E03B
:100CB0004FF00003184607F10C07BD4680BC704793
:100CC00080B586B000AFF8607B600B46FB721346C0
:100CD000BB72FB7AF8681946FFF7BCFF1FE07B6820
:100CE0007B6104E000BF7B6903F1FF337B617B69BB
:100CF000002BF7D1FB7AF8681946FFF795FF7B6860
:100D00007B6104E000BF7B6903F1FF337B617B699A
:100D1000002BF7D1FB7AF8681946FFF79BFFBB7AE7
:100D2000002B0CBF00230123DBB2BA7A02F1FF32A1
:100D3000BA72002BD3D107F11807BD4680BD00BFA2
:100D400080B400AF4FF48053C4F202034FF48052DA
:100D5000C4F20202126842F001021A6041F2040277
:100D6000C4F2020241F20403C4F2020319684FF014
:100D70000003CFF6FF0301EA030313604FF480532F
:100D8000C4F202034FF48052C4F20202126822F04D
:100D9000847222F480321A604FF48053C4F202034A
:100DA0004FF48052C4F20202126822F480221A60C8
:100DB00041F20403C4F2020341F20402C4F202024B
:100DC000126822F4FE021A6041F20803C4F2020320
:100DD0004FF000021A60BD4680BC704780B400AF7F
:100DE0004FF48053C4F202034FF48052C4F2020263
:100DF000126842F001121A6000BF4FF48053C4F22F
:100E000002031B6803F40033002BF6D04FF40053A9
:100E1000C4F202034FF012021A6041F20403C4F25A
:100E2000020341F20402C4F20202126842F4E81220
:100E300042F480621A604FF48053C4F202034FF40C
:100E40008052C4F20202126842F080721A6000BF3F
:100E50004FF48053C4F202031B6803F04073002B6D
:100E6000F6D041F20403C4F2020341F20402C4F2D8
:100E70000202126842F002021A6000BF41F204034B
:100E8000C4F202031B6803F00803002BF6D0BD4632
:100E900080BC704780B582B000AF41F21803C4F245
:100EA00002031B687B607B6843F004037B6041F2B4
:100EB0001803C4F202037A681A604FF40063C4F2A4
:100EC00001034FF480121A604FF40063C4F201036F
:100ED0001B687B607B6823F470037B607B6843F452
:100EE00080137B604FF40063C4F201037A681A60D8
:100EF0004FF40060C4F201004FF00501FFF794FECB
:100F000007F10807BD4680BD80B483B000AF41F251
:100F10001803C4F202031B687B607B6843F0100374
:100F20007B6041F21803C4F202037A681A6041F24E
:100F30000403C4F201031B687B607B6823F0F003A9
:100F40007B607B6843F040037B6041F20403C4F2A2
:100F500001037A681A6007F10C07BD4680BC704730
:100F600080B483B000AF4FF48053C4F202031B6817
:100F700003F00103002B10D14FF48053C4F202039D
:100F80001B687B607B6843F001037B604FF48053F8
:100F9000C4F202037A681A6000E000BF4FF4805385
:100FA000C4F202031B6803F00203002BF6D007F122
:100FB0000C07BD4680BC704780B485B000AF786038
:100FC0007B681B68FB60FA684FF00003C2F6FE7393
:100FD00002EA0303B3F1005F02D14FF0010301E025
:100FE0004FF00003184607F11407BD4680BC704758
:100FF00080B584B000AF78607B6803F104031B68A0
:10100000FB60FB68BB6000F095F9FFF78DFC00F01A
:10101000ADF84FF48050C4F201004FF00C01FFF71F
:1010200003FEFFF78DFE7B681B681846FFF782F80A
:10103000BB68984707F11007BD4680BD80B48BB0F0
:1010400000AF78604FF000037B624FF000033B621B
:101050004FF00003FB614FF00003BB614FF00F0343
:101060007B614FF46D43CEF200033B614FF461436B
:10107000CEF20003FB603B69DB686FEA030303F415
:10108000E0634FEA13237B627B6AC3F10403BB6115
:101090007B6A7A6922FA03F37B617B685B781A4684
:1010A000BB6902FA03F37B627B689B781A467B6913
:1010B00002EA03037A6A42EA03037B627B6A4FEA2D
:1010C00003137B627B681B7803F003034FEAC303BF
:1010D0007A6A02FA03F37B627B681B784FEA930318
:1010E000DBB21A46FB6802F1C00253F822303B62C1
:1010F0007B681B7803F003034FEAC3034FF0FF0242
:1011000002FA03F3FB61FB696FEA03033A6A02EA3E
:1011100003033B627A6AFB6902EA03037B623A6A71
:101120007B6A42EA03033B627B681B784FEA9303C6
:10113000DBB21A46FB6802F1C002396A43F822109A
:101140007B681B784FEA5313DBB21A467B681B7827
:1011500003F01F034FF0010101FA03F1FB6843F8AC
:10116000221007F12C07BD4680BC704780B483B0C5
:1011700000AF4FF46143CEF200037B607B684FF019
:10118000FF32C3F880207B684FF0FF32C3F8842021
:101190007B684FF0FF32C3F880217B684FF0FF324D
:1011A000C3F884214EF21003CEF200034FF0040284
:1011B0001A6007F10C07BD4680BC704780B483B04D
:1011C00000AF4FF46D43CEF200037B607A684FF0BE
:1011D0000403C0F2FA53D36000BFFDE780B485B0CA
:1011E00000AF786042F21003C4F202031B68FB6098
:1011F0004FF00203FB6042F21003C4F20203FA68EC
:101200001A6000BF42F20C03C4F202031B6803F031
:101210000103DBB2002BF5D142F21403C4F2020346
:101220007A681A6042F21003C4F202034FF04202DD
:101230001A6000BF42F20C03C4F202031B6803F001
:101240000103DBB2002BF5D14FF00003FB6042F24B
:101250001003C4F20203FA681A604FF00103184643
:1012600007F11407BD4680BC704700BF80B487B04B
:1012700000AF786039607B687B613B684FEA03436D
:101280004FEA1343FB603B684FEA1343BB6042F2F3
:101290001003C4F202031B683B6142F21003C4F264
:1012A00002034FF001021A6000BF42F20C03C4F2C5
:1012B00002031B6803F00103DBB2002BF5D17B694D
:1012C00003F10203BA6892B21A8000BF42F20C0323
:1012D000C4F202031B6803F00103DBB2002BF5D15B
:1012E000FB689AB27B691A8000BF42F20C03C4F219
:1012F00002031B6803F00103DBB2002BF5D13B694D
:1013000023F001033B6142F21003C4F202033A6985
:101310001A607B681A683B689A4202D04FF000035B
:1013200001E04FF00103184607F11C07BD4680BCE1
:10133000704700BF80B400AF42F21003C4F2020352
:101340004FF080021A60BD4680BC704780B400AF89
:1013500042F20403C4F2020340F22312C4F26752C1
:101360001A6042F20403C4F2020348F6AB12CCF650
:10137000EF521A60BD4680BC704700BF80B400AF1A
:1013800040F2DC13C2F200034FF000021A7040F288
:10139000DC13C2F200034FF000025A7040F2DC137B
:1013A000C2F200034FF000029A7040F2DC13C2F266
:1013B00000034FF00002DA7040F2DC13C2F20003C7
:1013C0004FF002021A7140F2DC13C2F200034FF038
:1013D00000025A7140F22C63C2F200034FF0000287
:1013E0001A6040F23063C2F200034FF000021A802C
:1013F00040F2D013C2F200034FF44062C2F2000286
:101400001A6040F22963C2F200034FF000021A7022
:1014100040F2E453C2F200034FF003021A7040F2AC
:101420002A63C2F200034FF000021A70BD4680BC6E
:10143000704700BF80B582B000AF40F22A63C2F2AD
:1014400000034FF001021A7040F2DC13C2F20003F5
:101450001B79FB7140F2DC13C2F200034FF0000273
:101460001A70FB79022B40F0B88040F22A63C2F276
:1014700000034FF001021A7040F21863C2F2000339
:101480001B685B78012B52D140F21863C2F2000353
:101490001B68DB88002B3BD040F22C63C2F20003B8
:1014A0004FF000021A6040F2DC13C2F200034FF06A
:1014B00003021A7140F21863C2F200031B681B7B1F
:1014C000012B14D140F2D013C2F200034FF4A0421A
:1014D000C0F600021A6040F22963C2F200034FF026
:1014E00001021A70FFF73CFDFFF730FFA3E240F264
:1014F000D013C2F200034FF44062C2F200021A603D
:1015000040F22963C2F200034FF000021A7092E227
:1015100040F2DC13C2F200034FF00A021A7140F2EB
:10152000DC13C2F200034FF009021A7083E240F2AA
:101530001863C2F200031B685B78022B07D140F2EC
:10154000DC13C2F200034FF009021A7173E240F299
:101550001863C2F200031B685B78062B0ED140F2C1
:10156000DC13C2F200034FF002021A7140F2DC13E6
:10157000C2F200034FF000021A705CE240F21863FE
:10158000C2F200031B685B78032B07D140F2DC1327
:10159000C2F200034FF002021A714CE240F21863EB
:1015A000C2F200031B685B78052B07D140F2DC1305
:1015B000C2F200034FF002021A713CE240F2DC1367
:1015C000C2F200034FF00A021A7140F2DC13C2F2B9
:1015D00000034FF00F021A702DE2FB79032B40F04D
:1015E000988040F21863C2F200031B685B78032BFB
:1015F00070D140F22963C2F200031B78002B5FD048
:1016000040F2E453C2F200031B78032B1CD140F2DA
:10161000E453C2F200034FF000021A7040F2DC13F0
:10162000C2F200034FF0FF025A7040F2DC13C2F224
:1016300000034FF001029A7040F2DC13C2F2000383
:101640004FF004021A71F6E140F2E453C2F20003D3
:101650001B78002B07D140F2DC13C2F200034FF0DD
:1016600003021A71E7E140F2E453C2F200031B786F
:10167000012B07D140F2DC13C2F200034FF003024A
:101680001A71D8E140F2E453C2F200031B78022B36
:1016900040F0D18140F2DC13C2F200034FF00002AF
:1016A0005A7040F2E453C2F200034FF003021A7082
:1016B00040F2DC13C2F200034FF005021A71BAE1E6
:1016C00040F2DC13C2F200034FF005021A7100F081
:1016D00089FAB0E140F21863C2F200031B685B783C
:1016E000052B07D140F2DC13C2F200034FF00302D6
:1016F0001A71A0E140F2DC13C2F200034FF00A02BB
:101700001A7140F2DC13C2F200034FF00F021A709C
:1017100091E1FB79042B24D140F2E453C2F200039F
:101720001B78022B15D140F2DC13C2F200034FF0FC
:1017300000025A7040F2E453C2F200034FF0030279
:101740001A7040F2DC13C2F200034FF005021A7166
:1017500071E140F2DC13C2F200034FF004021A718F
:1017600069E1FB79052B60D140F21863C2F20003F6
:101770001B685B78012B19D140F21863C2F2000399
:101780001B68DB88002B07D040F2DC13C2F2000399
:101790004FF003021A714EE140F2DC13C2F2000373
:1017A0004FF006021A71FFF7C5FD44E140F21863DD
:1017B000C2F200031B685B78062B07D140F2DC13F2
:1017C000C2F200034FF002021A7134E140F21863D2
:1017D000C2F200031B685B78032B07D140F2DC13D5
:1017E000C2F200034FF002021A7124E140F21863C2
:1017F000C2F200031B685B78052B07D140F2DC13B3
:10180000C2F200034FF002021A7114E140F2DC133D
:10181000C2F200034FF00A021A7140F2DC13C2F266
:1018200000034FF00F021A7005E1FB79062B35D14A
:1018300040F21863C2F200031B685B78032B0ED1E1
:1018400040F2DC13C2F200034FF008021A7140F2BA
:10185000DC13C2F200034FF000021A70EBE040F21A
:101860001863C2F200031B685B78052B07D140F2B6
:10187000DC13C2F200034FF006021A71DBE040F203
:10188000DC13C2F200034FF00A021A7140F2DC13BB
:10189000C2F200034FF00F021A70CCE0FB79072B65
:1018A0000ED140F2DC13C2F200034FF008021A71AD
:1018B00040F2DC13C2F200034FF000021A70BAE0EB
:1018C000FB79082B07D140F2DC13C2F200034FF082
:1018D00008021A71AFE0FB79092B55D140F2186369
:1018E000C2F200031B685B78022B0ED140F2DC13BE
:1018F000C2F200034FF00A021A7140F2DC13C2F286
:1019000000034FF00F021A7095E040F21863C2F224
:1019100000031B685B78062B07D140F2DC13C2F290
:1019200000034FF002021A7185E040F21863C2F220
:1019300000031B685B78032B07D140F2DC13C2F273
:1019400000034FF009021A7175E040F21863C2F209
:1019500000031B685B78052B07D140F2DC13C2F251
:1019600000034FF009021A7165E040F2DC13C2F285
:1019700000034FF00A021A7140F2DC13C2F20003B6
:101980004FF00F021A7056E0FB790A2B45D140F256
:101990001863C2F200031B685B78032B07D140F287
:1019A000DC13C2F200034FF00A021A7143E040F266
:1019B0001863C2F200031B685B78052B07D140F265
:1019C000DC13C2F200034FF00A021A7133E040F256
:1019D0001863C2F200031B685B78042B0ED140F23F
:1019E000DC13C2F200034FF002021A7140F2DC1362
:1019F000C2F200034FF000021A701CE040F2DC1348
:101A0000C2F200034FF00A021A7140F2DC13C2F274
:101A100000034FF00F021A700DE040F2DC13C2F227
:101A200000034FF00A021A7140F2DC13C2F2000305
:101A30004FF00F021A7040F2DC13C2F200031B7861
:101A4000002B02D14FF0010301E04FF000031846D4
:101A500007F10807BD4680BD80B582B000AF40F2F7
:101A6000DC13C2F200031B79FB7140F22C63C2F25B
:101A700000034FF000021A60FB79012B12D140F2F3
:101A8000DC13C2F200034FF002021A7140F2DC13C1
:101A9000C2F200034FF000021A70FFF767FBFEF777
:101AA0002BFF15E0FB79002B12D0FB79022B0FD016
:101AB00040F2DC13C2F200034FF002021A7140F24E
:101AC000DC13C2F200034FF000021A70FFF776FB3E
:101AD00007F10807BD4680BD80B483B000AF034660
:101AE000FB80FB88002B0AD140F21863C2F200038E
:101AF0001B684FF001021A824FF0000300E0034B15
:101B0000184607F10C07BD4680BC7047E001002075
:101B100080B483B000AF0346FB80FB88002B0AD162
:101B200040F21863C2F200031B684FF006021A82EB
:101B30004FF0000303E040F2DC13C2F2000318464A
:101B400007F10C07BD4680BC704700BF80B483B06E
:101B500000AF0346FB80FB88002B22D140F21863C4
:101B6000C2F200031A6840F21863C2F200031B6855
:101B7000D98840F21863C2F200031B685B8AC3EB8A
:101B800001039BB2138240F21863C2F200031B6888
:101B9000DA8840F23063C2F200031A804FF000038B
:101BA0000BE040F21863C2F200031B685B8A1A461E
:101BB00040F2E413C2F200031344184607F10C0785
:101BC000BD4680BC704700BF80B483B000AF034601
:101BD000FB804FF00003184607F10C07BD4680BCA0
:101BE000704700BF80B582B000AF40F22963C2F2F7
:101BF00000031B78002B28D140F22C63C2F20003B3
:101C00001B6803F1005303F540633B604FF0000392
:101C10007B6010E040F2E413C2F200037A681344E0
:101C20001A683B681A603B6803F104033B607B68F9
:101C300003F104037B6040F23063C2F200031B88AF
:101C40001A467B689A42E5DC2EE040F22C63C2F231
:101C500000031B6803F1006303F5A0433B603B688E
:101C60001846FFF7BBFA4FF000037B6013E03A68B9
:101C70003B6803F104033B6040F2E413C2F200034B
:101C800079680B441B6810461946FFF7EFFA7B682A
:101C900003F104037B6040F23063C2F200031B884F
:101CA0001A467B689A42E2DC40F23063C2F20003DB
:101CB0001B881A4640F22C63C2F200031B681A44C8
:101CC00040F22C63C2F200031A6040F23063C2F2A9
:101CD00000034FF000021A8007F10807BD4680BDDF
:101CE00080B400AF40F22A63C2F200031B781846AA
:101CF000BD4680BC704700BF80B500AF02E000BFAA
:101D000000E000BF40F22963C2F200031B78002B01
:101D1000F5D040F2E453C2F200031B78002BF0D15F
:101D200040F2E453C2F200034FF001021A704FF484
:101D30000060C4F201004FF005014FF002024FF4C1
:101D40008053FEF7BDFFFFF74DFF4FF40060C4F274
:101D500001004FF005014FF002024FF4A063FEF7BF
:101D6000AFFF40F2E453C2F200034FF002021A70D8
:101D7000C8E700BF90B482B000AF02460B46FA71CC
:101D8000BB80FB794FEA830303F1804303F5B8433B
:101D90001B689BB223F4E04323F040039CB2BB8852
:101DA00003F010039BB2002B02D084F010039CB20E
:101DB000BB8803F020039BB2002B02D084F02003E9
:101DC0009CB2FB794FEA830303F1804303F5B843E8
:101DD00022461A6007F10807BD4690BC704700BF55
:101DE00090B482B000AF0346FB71FB794FEA8303E6
:101DF00003F1804303F5B8431B689BB223F480438F
:101E000023F070039CB284F480539CB284F400539A
:101E10009CB2FB794FEA830303F1804303F5B84397
:101E200022461A6007F10807BD4690BC704700BF04
:101E300080B483B000AF0346FB71FB794FEA8303A4
:101E400003F1804303F5B843FA794FEA820202F1C5
:101E5000804202F5B842126892B2114648F68F628B
:101E600001EA02021A6007F10C07BD4680BC704708
:101E700080B483B000AF0346FB71FB794FEA830364
:101E800003F1804303F5B8431B689BB203F480431E
:101E9000002B17D0FB794FEA830303F1804303F54E
:101EA000B843FA794FEA820202F1804202F5B84261
:101EB000126892B2114648F68F7201EA020242F4A9
:101EC00080421A6007F10C07BD4680BC704700BF16
:101ED00080B483B000AF0346FB71FB794FEA830304
:101EE00003F1804303F5B8431B689BB203F0400342
:101EF000002B17D0FB794FEA830303F1804303F5EE
:101F0000B843FA794FEA820202F1804202F5B84200
:101F1000126892B2114648F68F7201EA020242F04C
:101F200040021A6007F10C07BD4680BC704700BF35
:101F300080B483B000AF0346FB7145F65043C4F252
:101F400000031B689BB21A46FB794FEAC303134494
:101F500003F1005303F540534FEA43031B689BB260
:101F6000184607F10C07BD4680BC704780B483B0AB
:101F700000AF0346FB7145F65043C4F200031B68F3
:101F80009BB21A46FB794FEAC3031A4443F2040397
:101F9000C2F2000313444FEA43031B689BB2184686
:101FA00007F10C07BD4680BC704700BF80B483B00A
:101FB00000AF02460B46FA71BB8045F65043C4F2AF
:101FC00000031B689BB21A46FB794FEAC3031A440D
:101FD00043F20203C2F2000313444FEA4303BA88F8
:101FE0001A6007F10C07BD4680BC704780B485B00D
:101FF00000AF02460B46FA71BB8045F65043C4F26F
:1020000000031B689BB21A46FB794FEAC3031A44CC
:1020100043F20603C2F2000313444FEA4303BB60DA
:10202000BB883E2B15D9BB884FEA5313FB81BB8875
:1020300003F01F03002B03D1FB8903F1FF33FB8166
:10204000FB894FEA832343F400431A46BB681A60B6
:1020500013E0BB884FEA5303FB81BB8803F0010305
:10206000DBB2002B03D0FB8903F10103FB81FB8969
:102070004FEA83231A46BB681A6007F11407BD466E
:1020800080BC704780B485B000AF0346FB80FB88FE
:10209000FB73FB884FEA13239BB29AB2FB7B4FEA98
:1020A00003239BB242EA03039BB2BB81BB89184660
:1020B00007F11407BD4680BC704700BF90B583B0E0
:1020C00000AF4FF000037B6096E245F64443C4F254
:1020D000000347F6FF721A6040F2D413C2F2000305
:1020E0001B889BB2DBB203F00F03DAB240F2F45369
:1020F000C2F200031A7040F2F453C2F200031B78DC
:10210000002B40F009824FF4B843C4F200031B686F
:102110009BB203F440539AB240F2E653C2F200037A
:102120001A804FF4B843C4F200031B689BB203F05B
:1021300030039AB240F2E853C2F200031A804FF41F
:10214000B843C4F200031B689BB223F4804323F01E
:1021500070039CB284F400539CB24FF4B843C4F2B1
:10216000000322461A604FF4B843C4F200031B6810
:102170009BB223F4E04323F040039CB284F020039D
:102180009CB24FF4B843C4F2000322461A6040F2F6
:10219000D413C2F200031B889BB203F01003002B80
:1021A00068D14FF4B843C4F200034FF4B842C4F20C
:1021B0000002126892B2114648F60F7201EA02025A
:1021C0001A6001F045FB4FF4B843C4F200031B68EA
:1021D0009BB223F4804323F070039CB240F2E65399
:1021E000C2F200031B8803F480539BB2002B02D081
:1021F00084F480539CB240F2E653C2F200031B8881
:1022000003F400539BB2002B02D084F400539CB221
:102210004FF4B843C4F2000322461A604FF4B843A7
:10222000C4F200031B689BB223F4E04323F0400395
:102230009CB240F2E853C2F200031B8803F0100383
:102240009BB2002B02D084F010039CB240F2E85302
:10225000C2F200031B8803F020039BB2002B02D0C4
:1022600084F020039CB24FF4B843C4F2000322462A
:102270001A60D7E14FF4B843C4F200031B689BB265
:102280007B607B6803F08003002B68D04FF4B84379
:10229000C4F200034FF4B842C4F20002126892B2D2
:1022A000114648F60F7201EA02021A6001F0D0FAF4
:1022B0004FF4B843C4F200031B689BB223F480437D
:1022C00023F070039CB240F2E653C2F200031B8875
:1022D00003F480539BB2002B02D084F480539CB251
:1022E00040F2E653C2F200031B8803F400539BB292
:1022F000002B02D084F400539CB24FF4B843C4F2D4
:10230000000322461A604FF4B843C4F200031B686E
:102310009BB223F4E04323F040039CB240F2E85325
:10232000C2F200031B8803F010039BB2002B02D003
:1023300084F010039CB240F2E853C2F200031B8801
:1023400003F020039BB2002B02D084F020039CB248
:102350004FF4B843C4F2000322461A6062E17B687E
:1023600003F40063002B68D04FF4B843C4F20003B9
:102370004FF4B842C4F20002126892B2114640F61D
:102380008F7201EA02021A6001F0DAF94FF4B843E1
:10239000C4F200031B689BB223F4804323F0700354
:1023A0009CB240F2E653C2F200031B8803F4805350
:1023B0009BB2002B02D084F480539CB240F2E653CF
:1023C000C2F200031B8803F400539BB2002B02D01F
:1023D00084F400539CB24FF4B843C4F20003224685
:1023E0001A604FF4B843C4F200031B689BB223F495
:1023F000E04323F040039CB240F2E853C2F20003F2
:102400001B8803F010039BB2002B02D084F0100352
:102410009CB240F2E853C2F200031B8803F0200391
:102420009BB2002B02D084F020039CB24FF4B8433F
:10243000C4F2000322461A60F4E07B6803F4004310
:10244000002B00F0D9804FF4B843C4F200034FF4DE
:10245000B842C4F20002126892B2114640F68F727E
:1024600001EA02021A6001F051FA4FF4B843C4F2D3
:1024700000031B689BB223F4804323F070039CB2DB
:1024800040F2E653C2F200031B8803F480539BB270
:10249000002B02D084F480539CB240F2E653C2F287
:1024A00000031B8803F400539BB2002B02D084F47A
:1024B00000539CB24FF4B843C4F2000322461A60A2
:1024C0004FF4B843C4F200031B689BB223F4E0430B
:1024D00023F040039CB240F2E853C2F200031B8891
:1024E00003F010039BB2002B02D084F010039CB2C7
:1024F00040F2E853C2F200031B8803F020039BB2B2
:10250000002B02D084F020039CB24FF4B843C4F2F5
:10251000000322461A6085E040F2F453C2F2000341
:102520001B784FEA830303F1804303F5B8431B682C
:102530009BB27B607B6803F40043002B2BD040F2FE
:10254000F453C2F200031B784FEA830303F1804384
:1025500003F5B84340F2F452C2F2000212784FEA97
:10256000820202F1804202F5B842126892B211462C
:1025700040F68F7201EA02021A6040F2F453C2F28E
:1025800000031B7803F1FF3240F27803C2F200032C
:1025900053F8223098477B6803F08003002B2BD040
:1025A00040F2F453C2F200031B784FEA830303F1B5
:1025B000804303F5B84340F2F452C2F200021278AD
:1025C0004FEA820202F1804202F5B842126892B2EA
:1025D000114648F60F7201EA02021A6040F2F45303
:1025E000C2F200031B7803F1FF3240F25C03C2F237
:1025F000000353F82230984745F64443C4F20003E1
:102600001B689AB240F2D413C2F200031A8040F25F
:10261000D413C2F200031B889BB29BB21BB2002BE7
:10262000FFF653AD07F10C07BD4690BD80B500AF76
:1026300040F21863C2F2000340F2F852C2F2000204
:102640001A6040F21863C2F200031B684FF00202E6
:102650001A7240F2F053C2F2000340F20402C2F2D6
:1026600000021A6040F21463C2F2000340F2380222
:10267000C2F200021A6040F2F053C2F200031B687B
:102680001B689847BD4680BD80B582B000AF034649
:10269000FB80FB88002B0AD140F21863C2F20003D2
:1026A0001B684FF001021A824FF000030DE040F268
:1026B0001463C2F200031B681B68984740F218635A
:1026C000C2F200031B6803F10A03184607F108076A
:1026D000BD4680BD80B500AF40F21863C2F2000372
:1026E0001B68DA7840F20003C2F200035B789A427A
:1026F00025D840F21863C2F200031B689B78002BB8
:102700001DD140F21863C2F200031B689B88002BA6
:1027100015D140F21863C2F200031A6840F2186340
:10272000C2F200031B68DB78937240F21463C2F2BA
:1027300000031B685B6898474FF0000301E04FF00F
:1027400002031846BD4680BD80B582B000AF034687
:10275000FB80FB88002B0AD140F21863C2F2000311
:102760001B684FF001021A824FF000030DE040F2A7
:102770001463C2F200031B689B68984740F2186319
:10278000C2F200031B6803F10C03184607F10807A7
:10279000BD4680BD80B582B000AF40F2F053C2F2BA
:1027A00000031B689A6940F21863C2F200031B68B9
:1027B000597940F21863C2F200031B68DB780846BF
:1027C000194690470346FB7140F21863C2F20003BA
:1027D0001B689B7A002B3AD0FB79002B0FD140F27B
:1027E0001863C2F200031B681B79002B07D140F26B
:1027F0001863C2F200031B689B78002B02D04FF0D5
:10280000020326E0FB79002B21D140F21463C2F2CF
:1028100000031B68DB68984740F21863C2F20003AC
:102820001A6840F21863C2F200031B685B79D37226
:1028300040F21863C2F200031A6840F21863C2F251
:1028400000031B68DB7813734FF0000301E04FF0C7
:102850000203184607F10807BD4680BD80B584B065
:1028600000AF0346FB80FB88002B0AD140F21863BF
:10287000C2F200031B684FF002021A824FF00003FD
:10288000B7E040F22063C2F200034FF000021A806A
:1028900040F21863C2F200031B681B7803F07F0349
:1028A000002B39D140F21863C2F200031B685B7A37
:1028B000FB73FB7B03F02003002B0CD040F2206362
:1028C000C2F200031B7843F00203DAB240F2206345
:1028D000C2F200031A70FB7B03F04003002B0DD003
:1028E00040F22063C2F200031B7823F00103DAB246
:1028F00040F22063C2F200031A706FE040F22063DE
:10290000C2F200031B7843F00103DAB240F2206305
:10291000C2F200031A7061E040F21863C2F20003D1
:102920001B681B7803F07F03012B04D140F2206366
:10293000C2F200035DE040F21863C2F200031B68BC
:102940001B7803F07F03022B45D140F21863C2F2DB
:1029500000031B685B79BB73BB7B03F00F037B73C6
:10296000BB7B5BB2002B1ADA7B7B4FEA830303F15C
:10297000804303F5B8431B689BB203F03003102B70
:102980002CD140F22063C2F200031B7843F0010314
:10299000DAB240F22063C2F200031A701EE07B7BC1
:1029A0004FEA830303F1804303F5B8431B689BB2EE
:1029B00003F44053B3F5805F10D140F22063C2F2BC
:1029C00000031B7843F00103DAB240F22063C2F245
:1029D00000031A7002E04FF000030AE040F21463B3
:1029E000C2F200031B681B69984740F22063C2F2E1
:1029F0000003184607F11007BD4680BD90B587B0AB
:102A000000AF40F21863C2F200031B681B7803F0AA
:102A10007F033B613B69002B11D140F21863C2F286
:102A200000031A6840F21863C2F200031B685B7A65
:102A300023F02003DBB253724FF00003E7E03B6961
:102A4000022B40F0E28040F21863C2F200031B68E0
:102A50005B88002B07D140F21863C2F200031B68A9
:102A60001B79002B02D04FF00203D0E040F20003AC
:102A7000C2F20003FB6040F21863C2F200031B685D
:102A80005B79BB60BB6823F080037B607B683B6045
:102A900040F21863C2F200031B685B79DBB25BB2E1
:102AA000002B0CDA3B684FEA830303F1804303F504
:102AB000B8431B689BB203F030037B610BE03B68BB
:102AC0004FEA830303F1804303F5B8431B689BB2CD
:102AD00003F440537B61FB681B781A467B689A427B
:102AE0000AD97B69002B07D040F21863C2F20003B9
:102AF0001B689B7A002B02D14FF0020387E0BB6872
:102B000003F08003002B19D03B684FEA830303F1E5
:102B1000804303F5B8431B689BB203F03003102BCE
:102B200069D13B68DBB21846FFF7D2F93B68DBB2EC
:102B300018464FF03001FFF71DF95CE03B684FEAA3
:102B4000830303F1804303F5B8431B689BB203F48E
:102B50004053B3F5805F4ED13B68002B29D13B68D1
:102B6000DAB240F20403C2F2000393F830301046A8
:102B70001946FFF73BFA3B684FEA830303F18043B2
:102B800003F5B8431B689BB223F4804323F0700322
:102B90009CB284F480539CB284F400539CB23B6892
:102BA0004FEA830303F1804303F5B84322461A60DA
:102BB00021E03B68DBB21846FFF75AF93B684FEA61
:102BC000830303F1804303F5B8431B689BB223F4EE
:102BD000804323F070039CB284F480539CB284F44D
:102BE00000539CB23B684FEA830303F1804303F533
:102BF000B84322461A6040F21463C2F200031B6815
:102C00005B6998474FF0000301E04FF0020318465C
:102C100007F11C07BD4690BD90B585B000AF40F2EE
:102C20001863C2F200031B685B79BB60BB6823F0CA
:102C300080037B607B683B6040F21863C2F2000354
:102C40001B685B79DBB25BB2002B0CDA3B684FEAA6
:102C5000830303F1804303F5B8431B689BB203F081
:102C60003003FB600BE03B684FEA830303F18043D2
:102C700003F5B8431B689BB203F44053FB6040F27A
:102C80000003C2F200031B781A463B689A4212D92D
:102C900040F21863C2F200031B685B88002B0AD164
:102CA000FB68002B07D040F21863C2F200031B68D8
:102CB0009B7A002B02D14FF0020342E0BB6803F085
:102CC0008003002B1AD03B684FEA830303F1804353
:102CD00003F5B8431B689BB223F4E04323F04003A1
:102CE0009CB284F010039CB23B684FEA830303F16B
:102CF000804303F5B84322461A6019E03B684FEA67
:102D0000830303F1804303F5B8431B689BB223F4AC
:102D1000804323F070039CB284F480539CB23B68E0
:102D20004FEA830303F1804303F5B84322461A6058
:102D300040F21463C2F200031B689B6998474FF08E
:102D40000003184607F11407BD4690BD80B500AFDB
:102D500040F21863C2F200031A6840F21863C2F22C
:102D600000031B685B7A43F02003DBB2537240F22E
:102D70001463C2F200031B68DB6998474FF000033D
:102D80001846BD4680BD00BF80B485B000AF034685
:102D90003960FB8040F21863C2F200031B685B8A53
:102DA000FB60FB88002B0FD140F21863C2F20003D6
:102DB0001B683A689188FA6892B2C2EB010292B23B
:102DC0001A824FF0000303E03B681A68FB68134463
:102DD000184607F11407BD4680BC704780B584B023
:102DE00000AF40F21863C2F200031B6803F1100346
:102DF000BB60BB681B887B60BB689B68002B31D0C5
:102E00007B68002B2ED0BB689B88FB60FA687B68D0
:102E10009A4201D97B68FB60BB689B68FA6892B2F2
:102E20001046984703463B60BB681A88FB689BB214
:102E3000C3EB02039AB2BB681A80BB685A88FB686E
:102E40009BB213449AB2BB685A804FF00000FFF760
:102E50008DF803461A46FB689BB2386811461A463D
:102E600000F054FEBB681B88002B13D040F2E653E1
:102E7000C2F200034FF440521A804FF000004FF0AE
:102E80000001FFF793F840F2E853C2F200034FF05D
:102E900030021A80BB681A88BB689B889A4208D3A4
:102EA00040F21863C2F200031B684FF003021A726B
:102EB00030E0BB681B88002B08D040F21863C2F2D8
:102EC00000031B684FF005021A7223E0BB681B88E1
:102ED000002B1FD140F21863C2F200031B684FF0B1
:102EE00006021A7245F65043C4F200031B689BB2F7
:102EF0001A4643F20203C2F2000313444FEA4303AB
:102F00004FF000021A6040F2E853C2F200034FF0A3
:102F100030021A8007F11007BD4680BD80B586B02B
:102F200000AF40F21863C2F200031B6803F1100304
:102F3000FB60FB681B88BB6040F21863C2F20003B1
:102F40001B681B7A7B61BB68002B37D17B69042B24
:102F500034D140F23263C2F200031B78012B22D13C
:102F600045F65043C4F200031B689BB21A4643F275
:102F70000203C2F2000313444FEA43034FF000027E
:102F80001A6040F2E853C2F200034FF030021A8098
:102F90004FF004037B6140F23263C2F200034FF052
:102FA00000021A7058E04FF007037B6140F2E853CB
:102FB000C2F200034FF010021A804DE0FB689B88BC
:102FC0003B61BA683B699A4202D84FF0040301E0C2
:102FD0004FF002037B613A69BB689A4201D9BB6832
:102FE0003B61FB689B683A6992B21046984703467A
:102FF0007B604FF00000FEF79BFF03461A463B69DB
:103000009BB2786811461A4600F03AFD3B699BB2C4
:103010004FF000001946FEF7C9FFFB681A883B69AC
:103020009BB2C3EB02039AB2FB681A80FB685A8812
:103030003B699BB213449AB2FB685A8040F2E85352
:10304000C2F200034FF030021A8040F2E653C2F29F
:1030500000034FF440521A8040F21863C2F200039A
:103060001B687A69D2B21A7207F11807BD4680BD93
:1030700080B584B000AF4FF00203FB7340F21863D9
:10308000C2F200031B685B787B6040F21863C2F2F7
:1030900000031B681B7803F07F03002B40F0818046
:1030A0007B68092B04D1FFF715FB0346FB73A9E0EE
:1030B0007B68052B29D140F21863C2F200031B681C
:1030C000DB78DBB25BB2002B17DB40F21863C2F295
:1030D00000031B689B78002B0FD140F21863C2F2EB
:1030E00000031B689B88002B07D140F21863C2F2D3
:1030F00000031B689B7A002B03D04FF00803BB60D2
:10310000B8E04FF00003FB737CE07B68032B22D117
:1031100040F21863C2F200031B68DB78012B16D162
:1031200040F21863C2F200031B689B88002B0ED18B
:1031300040F21863C2F200031B685B7A03F02003BD
:10314000002B04D0FFF702FE0346FB735AE04FF05A
:103150000203FB7356E07B68012B52D140F21863E7
:10316000C2F200031B68DB78012B16D140F2186312
:10317000C2F200031B689B88002B0ED140F218633B
:10318000C2F200031B685B7A03F02003002B04D01B
:10319000FFF734FC0346FB7334E04FF00203FB738C
:1031A00030E040F21863C2F200031B681B7803F0A2
:1031B0007F03012B07D17B680B2B23D1FFF7EAFAA2
:1031C0000346FB731EE040F21863C2F200031B6863
:1031D0001B7803F07F03022B0FD17B68012B04D1F6
:1031E000FFF70CFC0346FB730CE07B68032B09D153
:1031F000FFF712FD0346FB7304E04FF00203FB737D
:1032000000E000BFFB7B002B12D040F2F053C2F273
:1032100000031B685B697A68D2B210469847034680
:10322000FB73FB7B032B03D14FF00903BB6021E051
:10323000FB7B002B03D04FF00803BB601AE04FF07C
:103240000603BB6045F65043C4F200031B689BB203
:103250001A4643F20203C2F2000313444FEA430347
:103260004FF000021A6040F2E853C2F200034FF040
:1032700030021A8040F21863C2F200031B68BA6879
:10328000D2B21A7207F11007BD4680BD80B58AB070
:1032900000AF40F21863C2F200031B685B78BB61A9
:1032A0004FF000037B624FF000037B61BB69062B8C
:1032B0003ED140F21863C2F200031B681B7803F092
:1032C0007F03002B40F0518140F21863C2F20003EB
:1032D0001B689B78FB74FB7C012B07D140F2F053F9
:1032E000C2F200031B68DB697B623EE1FB7C022BC0
:1032F00007D140F2F053C2F200031B681B6A7B62E5
:1033000033E1FB7C032B07D140F2F053C2F2000300
:103310001B685B6A7B6228E1FB7C212B40F02581E6
:1033200040F2F053C2F200031B689B6A7B621CE10F
:10333000BB69002B40F0B58040F21863C2F2000375
:103340001B685B88002B40F0AC8040F21863C2F22F
:1033500000031B68DB88022B40F0A38040F2186357
:10336000C2F200031B681B79002B40F09A8040F2E8
:103370001863C2F200031B681B7803F07F03002B65
:103380000DD140F21863C2F200031B689B88002B2A
:1033900005D142F65D03C0F600037B62E5E040F232
:1033A0001863C2F200031B681B7803F07F03012B34
:1033B00022D140F2F053C2F200031B689A6940F236
:1033C0001863C2F200031B685B7918464FF00001D6
:1033D00090470346002B40F0BD8040F21863C2F2D4
:1033E00000031B689B7A002B00F0B68042F65D0359
:1033F000C0F600037B62B8E040F21863C2F200033B
:103400001B681B7803F07F03022B40F0A78040F27B
:103410001863C2F200031B685B7903F00F03FB60C3
:1034200040F21863C2F200031B685B7903F070037B
:10343000BB6040F21863C2F200031B685B79DBB229
:103440005BB2002B0CDAFB684FEA830303F1804385
:1034500003F5B8431B689BB203F03003FB610BE03C
:10346000FB684FEA830303F1804303F5B8431B680D
:103470009BB203F44053FB6140F20003C2F200032D
:103480001B781A46FB689A426AD9BB68002B69D13F
:10349000FB69002B68D042F65D03C0F600037B6237
:1034A00063E0BB69082B0FD140F21863C2F200033E
:1034B0001B681B7803F07F03002B56D142F289630F
:1034C000C0F600037B6250E0BB690A2B4DD140F28D
:1034D0001863C2F200031B681B7803F07F03012B03
:1034E00043D140F21863C2F200031B689B7A002BA1
:1034F0003BD040F21863C2F200031B685B88002BCC
:1035000033D140F21863C2F200031B681B79002B11
:103510002BD140F21863C2F200031B68DB88012B39
:1035200023D140F2F053C2F200031B689A6940F2C3
:103530001863C2F200031B685B7918464FF0000164
:1035400090470346002B10D142F24973C0F60003A6
:103550007B620AE000BF08E000BF06E000BF04E0B5
:1035600000BF02E000BF00E000BF7B6A002B17D065
:1035700040F21863C2F200031B687A6992B25A8261
:1035800040F21863C2F200031B687A6A9A617B6A90
:103590004FF0000098474FF0000387F823301DE0FC
:1035A00040F2F053C2F200031B681A6940F218633C
:1035B000C2F200031B685B7818469047034687F801
:1035C000233097F82330032B08D140F21863C2F25E
:1035D00000031B684FF009021A72ADE040F2186355
:1035E000C2F200031B681A8A4FF6FF739A4208D191
:1035F00040F21863C2F200031B684FF009021A720E
:103600009AE097F82330022B07D040F21863C2F2F9
:1036100000031B681B8A002B08D140F21863C2F21A
:1036200000031B684FF008021A7285E040F218632D
:10363000C2F200031B681B78DBB25BB2002B6BDAB3
:1036400040F21863C2F200031B68DB887B6040F223
:103650001863C2F200031B681B8A1A467B689A42F1
:1036600008D940F21863C2F200031B687A6892B26C
:103670001A8241E040F21863C2F200031B681A8A02
:1036800040F21863C2F200031B68DB889A4233D20F
:1036900040F21863C2F200031B681A8A40F2F0532A
:1036A000C2F200031B6893F830309A4207D240F20E
:1036B0003263C2F200034FF000021A701CE040F2C5
:1036C0001863C2F200031B681B8A1A4640F2F053CB
:1036D000C2F200031B6893F8303092FBF3F103FB56
:1036E00001F3C3EB0203002B06D140F23263C2F2B6
:1036F00000034FF001021A7040F21863C2F2000397
:103700001A6840F2F053C2F200031B6893F830309D
:103710009382FFF703FC0FE040F21863C2F200034C
:103720001B684FF003021A7240F2E653C2F2000324
:103730004FF440521A8000BF07F12807BD4680BDF4
:1037400090B583B000AF45F65043C4F200031B6848
:103750009BB21A4643F20403C2F2000313444FEA39
:1037600043031B689BB203F1005303F540534FEA38
:1037700043037B6040F21863C2F200031B681B7AAC
:10378000092B47D040F21863C2F200031A687B6825
:103790001978117003F101037B6040F21863C2F2E3
:1037A00000031A687B681978517003F101037B608C
:1037B0007B6803F102037B6040F21863C2F20003EE
:1037C0001C687B681A8803F102037B601046FEF7D1
:1037D00059FC034663807B6803F102037B6040F27F
:1037E0001863C2F200031C687B681A8803F10203A5
:1037F0007B601046FEF746FC0346A3807B6803F11E
:1038000002037B6040F21863C2F200031B687A680F
:103810001288DA8040F21863C2F200031B684FF08E
:1038200001021A7240F21863C2F200031B68DB88BF
:10383000002B02D1FFF71CFC01E0FFF727FD00F091
:10384000ABF80346184607F10C07BD4690BD00BF14
:1038500080B582B000AF40F21863C2F200031B686B
:103860001B7A7B607B68022B02D07B68042B09D11A
:10387000FFF754FB40F21863C2F200031B681B7A87
:103880007B6032E07B68062B2CD140F21863C2F2D9
:1038900000031B685B78052B19D140F21863C2F254
:1038A00000031B681B7803F07F03002B0FD140F24D
:1038B0001863C2F200031B68DB78184600F09EF81C
:1038C00040F21463C2F200031B681B6A984740F27F
:1038D000F053C2F200031B689B6898474FF008033F
:1038E0007B6002E04FF008037B6040F21863C2F295
:1038F00000031B687A68D2B21A7200F04DF80346D2
:10390000184607F10807BD4680BD00BF80B582B0EC
:1039100000AF40F21863C2F200031B681B7A7B60A1
:103920007B68032B02D07B68052B09D1FFF756FA81
:1039300040F21863C2F200031B681B7A7B601AE036
:103940007B68072B0AD140F2F053C2F200031B68D8
:10395000DB6898474FF008037B600CE07B68022B24
:1039600002D07B68042B03D14FF008037B6002E098
:103970004FF008037B6040F21863C2F200031B683B
:103980007A68D2B21A7200F007F80346184607F1B7
:103990000807BD4680BD00BF80B500AF40F20403FC
:1039A000C2F2000393F830304FF000001946FEF7E2
:1039B0001DFB40F21863C2F200031B681B7A082B40
:1039C0000DD140F2E653C2F200034FF480521A8048
:1039D00040F2E853C2F200034FF010021A8040F2A6
:1039E0001863C2F200031B681B7A092B14BF002363
:1039F0000123DBB21846BD4680BD00BF80B485B050
:103A000000AF0346FB7140F20003C2F200031B78D3
:103A1000BB604FF00003FB601FE0FB68DBB24FEAC6
:103A2000830303F1804303F5B843FA68D2B24FEA47
:103A3000820202F1804202F5B842126892B2114647
:103A400048F68F7201EA0202F968C9B242EA01023D
:103A50001A60FB6803F10103FB60FA68BB689A42D5
:103A6000DBD345F64C43C4F20003FA7962F07F02DF
:103A7000D2B21A6007F11407BD4680BC704700BF80
:103A800080B489B000AF786013460A467A803B80E4
:103A90003B8803F101034FEA63037B617B8803F1F9
:103AA000005303F540534FEA4303BB617B69FB615D
:103AB00023E07B681B783B617B6803F101037B603B
:103AC0007B681B784FEA03231A463B6942EA0303EB
:103AD000FB60FB689AB2BB691A80BB6903F1020301
:103AE000BB61BB6903F10203BB617B6803F10103A6
:103AF0007B60FB6903F1FF33FB61FB69002BD8D1CD
:103B000007F12407BD4680BC704700BF80B487B072
:103B100000AF786013460A467A803B803B8803F109
:103B200001034FEA6303FB607B8803F1005303F555
:103B300040534FEA43033B61FB687B6114E07B68C1
:103B40003A69126892B21A807B6803F101037B60C4
:103B50003B6903F104033B617B6803F101037B6074
:103B60007B6903F1FF337B617B69002BE7D107F1B0
:103B70001C07BD4680BC704701010000E10400083D
:103B8000450500085906000865060008710600088A
:103B90003907000875070008A1070008C9070008D1
:103BA000F10700083D080008000000004000000088
:103BB000650800087108000899080008A5080008B1
:103BC000B1080008BD080008C9080008D5080008A9
:103BD000E108000845020008450200084502000807
:103BE0004502000845020008450200084502000899
:103BF0004502000845020008450200084502000889
:103C000045020008450200084502000812010001B3
:103C100000000040AF1E030000020102030100008B
:103C20009400002012000000092101FFFF00041A87
:103C300001000000B000002009000000090224007B
:103C400001010080320904000000FE0102040904A1
:103C5000000100FE010205092101FFFF000401002F
:103C6000C4000020240000000403090412034C00D7
:103C70006500610066004C00610062007300000096
:103C800014034D00610070006C00650020003000DE
:103C90003000330010034C004C004D002000300079
:103CA0003000330036034400460055002000500029
:103CB00072006F006700720061006D00200052000A
:103CC00041004D002000300078003200300030000C
:103CD0003000300043003000300000003A03440060
:103CE000460055002000500072006F00670072000F
:103CF00061006D00200046004C0041005300480068
:103D000020003000780030003800300030003500EE
:103D10003000300030000000F000002004000000FF
:103D2000F400002012000000080100202000000024
:103D30001C010020100000002C01002036000000B3
:103D4000640100203A000000000C0020C4D30008E9
:103D5000CCD30008D4D30008DCD30008E4D3000897
:103D6000ECD30008F4D30008FCD3000804D4000806
:103D70000CD400087CD4000814D400080000000013
:103D8000010203040102030406070809FFFFFFFF05
:103D9000FFFFFFFF02040608FFFFFFFFFFFFFFFF1B
:103DA000FFFFFFFFFFFFFFFFFFFFFFFFFFFFFFFF23
:103DB000FFFFFFFFFFFFFFFFFFFFFFFFFFFFFFFF13
:103DC000FFFFFFFFFFFFFFFFFFFFFFFFFFFFFFFF03
:103DD000FFFFFFFFFFFFFFFFFFFFFFFFFFFFFFFFF3
:1050000000500020C1740008BD7400082151000840
:10501000BD740008BD740008BD740008BD740008AC
:10502000BD740008BD740008BD740008BD7400089C
:10503000BD740008BD740008BD740008E154000888
:10504000BD740008BD740008BD740008BD7400087C
:10505000BD740008BD740008B15200089F520008DA
:105060008D5200087B52000869520008BD74000888
:10507000BD740008BD740008BD740008BD7400084C
:10508000BD740008BD740008BD740008BD7400083C
:10509000715D0008BD740008BD7400083952000835
:1050A000BD740008BD740008BD74000845550008B3
:1050B000E15500088556000821570008BD74000816
:1050C000BD740008BD740008BD740008BD740008FC
:1050D000BD7400081D5A0008315A0008455A0008DE
:1050E00009520008BD740008BD74000840F6B8639A
:1050F000C2F200031A780AB901201870704700BF85
:1051000040F60040C2F2000008B503682BB140F23F
:105110000003C0F2000303B1984708BD000000007F
:10512000034801B4044801B486B00248864670477B
:1051300000000061F9FFFFFF6D6F0008AFF3008012
:10514000014B00221A6070470081244208B54FF4D9
:105150000041042000F05CF9082000F043F9082029
:1051600000F066F90F4A002313604FF4F011043287
:105170001160243213600C4A0C4B1A600C4A043341
:105180001A600C4A012313600C3213600A4B1B682F
:10519000002BFBD1094B01221A60084B1B68002B26
:1051A000FBD108BD042401406DDBB6000C24014096
:1051B0006DDBB62D008124420C81244208812442FB
:1051C00001218140034B1A6841EA02021A6000BFC4
:1051D00000BF704714040140084B10B553F830303D
:1051E000044623B906484321064A01F0EBFE034B6F
:1051F00053F8343003B1984710BD00BF040C0020B1
:10520000AC7600080377000838B50A4B0A241D68FD
:105210002D04AD0E15F0010F05D02046FFF7DCFF81
:105220002046FFF7CDFF0134102C01D06D08F1E7C7
:1052300038BD00BF1404014038B50A4B05241D6871
:10524000AD05ED0E15F0010F05D02046FFF7C4FFA8
:105250002046FFF7B5FF01340A2C01D06D08F1E7B5
:1052600038BD00BF14040140042010B5FFF7B4FF9F
:105270000420BDE81040FFF7A3BF032010B5FFF7DF
:10528000ABFF0320BDE81040FFF79ABF022010B526
:10529000FFF7A2FF0220BDE81040FFF791BF0120F9
:1052A00010B5FFF799FF0120BDE81040FFF788BF58
:1052B000002010B5FFF790FF0020BDE81040FFF779
:1052C0007FBF0000024B1A6842F010021A6070475C
:1052D00000200240034B1A6822F0070240EA020253
:1052E0001A60704700200240F8B501F007070D462C
:1052F0001646BF00044620B915483321154A01F06F
:1053000061FE0F2D04D912483421134A01F05AFED0
:10531000092E06D10123AB40E268013E1343E3604E
:1053200007E0082E05D10123AB40E26822EA03031F
:10533000E360072D02D82346226801E06268231D3E
:105340000F21B940BE4022EA010232431A60F8BD83
:105350003D770008947700089977000810B5002081
:1053600000F040F8012000F03DF8022000F03AF88B
:10537000032000F037F80720BDE8104000F032B8F5
:1053800021F0604121F07F01014B0143196070471A
:1053900008ED00E04209012300F01F0013FA00F0BD
:1053A000014B43F82200704700E100E0420901236D
:1053B00000F01F0013FA00F0014B43F82200704781
:1053C00080E100E010B5002420460134FFF7EEFF35
:1053D000412CF9D110BD000001480021FFF7D0BFDA
:1053E00000500008084A094B12F8101002EB400266
:1053F0005278012010FA02F253F82130196841EA7C
:1054000002021A60704700BF4C780008A8770008B5
:10541000054B10B5054C1A6854F8200022EA00022A
:105420000A431A6010BD00BF0410024084780008CF
:10543000094A0A4B12F8101002EB40025278012080
:1054400010FA02F253F821301968114319601968F3
:1054500021EA02021A6070474C780008447800087C
:10546000022838B50C46154602D1B1F5803F04D06C
:1054700013485721134A01F0A5FD134B13491A682D
:1054800045EA040442F480320C601A600E4B19683D
:1054900011F4003FFAD042F080721A600A4B1B6888
:1054A00013F0007FFAD024F00304084B44F0020408
:1054B0001C60064B1B6803F00C03082BF9D138BDA8
:1054C000B47700080A780008001002400410024077
:1054D000024B07221860043B1A60704714E000E09A
:1054E000024B1A6801321A60704700BFBC0E0020E0
:1054F0000C234343013B18460138FDD8704738B5AB
:105500000546002404E04FF47A70FFF7F1FF013400
:10551000AC42F8D338BD0000074A0023138013843F
:105520004FF0804213801384044A13801384044A8A
:1055300013801384704700BF002C0140000400401A
:1055400000080040244A10B5148AA4B214F0100FC9
:105550000AD0138A23F010031B041B0C13821F4B69
:105560005A690AB15B69984714F0080F0BD01A4AC0
:10557000138A23F008031B041B0C1382174B1A69B0
:105580000AB11B69984714F0040F0BD0124A138A12
:1055900023F004031B041B0C1382104BDA680AB1BE
:1055A000DB68984714F0020F0BD00B4A138A23F0E4
:1055B00002031B041B0C1382084B9A680AB19B68F8
:1055C000984714F0010F06D0034A138A23F0010311
:1055D0001B041B0C138210BD002C0140840C002006
:1055E0004FF0804210B5148AA4B214F0100F0AD004
:1055F000138A23F010031B041B0C1382204BDA6A5E
:105600000AB1DB6A984714F0080F0CD04FF08042C3
:10561000138A23F008031B041B0C1382184B9A6A8D
:105620000AB19B6A984714F0040F0CD04FF08042E7
:10563000138A23F004031B041B0C1382104B5A6AB9
:105640000AB15B6A984714F0020F0CD04FF0804209
:10565000138A23F002031B041B0C1382084B1A6AE3
:105660000AB11B6A984714F0010F07D04FF080422F
:10567000138A23F001031B041B0C138210BD00BF0F
:10568000840C0020244A10B5148AA4B214F0100F20
:105690000AD0138A23F010031B041B0C13821F4B28
:1056A0005A6C0AB15B6C984714F0080F0BD01A4A79
:1056B000138A23F008031B041B0C1382174B1A6C6C
:1056C0000AB11B6C984714F0040F0BD0124A138ACE
:1056D00023F004031B041B0C1382104BDA6B0AB17A
:1056E000DB6B984714F0020F0BD00B4A138A23F0A0
:1056F00002031B041B0C1382084B9A6B0AB19B6BB1
:10570000984714F0010F06D0034A138A23F00103CF
:105710001B041B0C138210BD00040040840C0020ED
:10572000244A10B5148AA4B214F0100F0AD0138AB8
:1057300023F010031B041B0C13821F4BDA6D0AB1FC
:10574000DB6D984714F0080F0BD01A4A138A23F028
:1057500008031B041B0C1382174B9A6D0AB19B6D37
:10576000984714F0040F0BD0124A138A23F0040355
:105770001B041B0C1382104B5A6D0AB15B6D9847CA
:1057800014F0020F0BD00B4A138A23F002031B0400
:105790001B0C1382084B1A6D0AB11B6D984714F04D
:1057A000010F06D0034A138A23F001031B041B0CCC
:1057B000138210BD00080040840C002038B54B1E39
:1057C000DBB2032B05460C4605D90D484FF4B771E3
:1057D0000C4A01F0F7FB062118236B4301FB05453A
:1057E000094A0639013542F82510013111FA04F44D
:1057F0009B589A8992B222EA04049C8138BD00BF6A
:1058000098780008F1780008840C00202DE9F04118
:105810001646182242434E4B0746D4580D4621B92E
:105820004C48E9314C4A01F0CDFB012E1AD003D38C
:10583000022E40F0858048E0012616FA05F229463E
:10584000013DAD00AE40A38938469BB223EA020376
:10585000A381FFF7B3FF238C9BB223EA06062684BD
:10586000BDE8F081AE40A3899BB223EA06066B1E19
:10587000A681032B25D8DFE803F0020B131C238B32
:1058800003F47F432383238B9BB243F0680333E00D
:10589000238BDBB22383238B9BB243F4D0432BE0D7
:1058A000A38B03F47F43A383A38B9BB243F06803D2
:1058B00034E0A38BDBB2A383A38B9BB243F4D0432E
:1058C0002CE0244840F20D112DE06B1E032B27D84D
:1058D000DFE803F0020B141D238B03F47F432383C3
:1058E000238B9BB243F0100306E0238BDBB22383B0
:1058F000238B9BB243F48053238317E0A38B03F4E1
:105900007F43A383A38B9BB243F0100306E0A38BDA
:10591000DBB2A383A38B9BB243F48053A38305E044
:105920000C4840F229110D4A01F04CFB013DAD003D
:105930000123AB40228C13439BB22384BDE8F0814A
:105940000448064A4FF49771BDE8F04101F03ABBB4
:10595000840C0020987800083979000846790008FE
:10596000182270B54243214B0E46D118D558044633
:105970000879FFF737FD4FF080032B804FF0FF339E
:105980002E85AB8548F6FF73AB862B8B9BB243F01D
:1059900068032B8348F6FF732B872B8B9BB243F452
:1059A000D0432B8348F6FF73AB87AB8B9BB243F09E
:1059B0006803AB8348F6FF73A5F84030AB8B9BB20E
:1059C00043F4D043AB831CB948F20003A5F844303C
:1059D0004FF000032B82AB814FF00103AB822B8889
:1059E0009BB243F001032B8070BD00BF840C0020EC
:1059F0004368C268D154027A0133013A02EA0303D0
:105A00004360704758234343034A9B5859601A68C0
:105A100012F0800FFBD07047E40C0020024B0348CB
:105A20005968C9B2FFF7E4BF00380140E80C002014
:105A3000024B03485968C9B2FFF7DABF004400407F
:105A4000400D0020024B03485968C9B2FFF7D0BF90
:105A500000480040980D002058224243094BD3587B
:105A6000DA6812F4005F03D01A6812F0400FF7D022
:105A70000022DA60034B583202FB00304368836037
:105A8000704700BFE40C002010B50020FFF7E4FFD2
:105A90000120FFF7E1FF0220BDE81040FFF7DCBF67
:105AA00070B506460D46002402E03046FFF7AAFF17
:105AB000295D01340029F8D170BD7FB50646002468
:105AC0000A20B1FBF0F300FB131101AA303111558C
:105AD00001341946002BF3D1651E551903E03046F9
:105AE0006978FFF78FFF013C013DB4F1FF3FF6D12C
:105AF0007FBD000003282DE9F04704460D4604D978
:105B000024487121244A01F05DFA4FF0580808FB3F
:105B100004F8224FAD0008EB070A0AF1500999F882
:105B2000040058F80760FFF75DFC99F80500FFF7DF
:105B300031FC1B4B1B4A002C18BF1A460023CAF825
:105B40000430CAF808300B335C43013407EBC4045B
:105B500035332371273B5343B3FBF5F56423B5FB82
:105B6000F3F21201110903FB11552D013235B5FB7A
:105B7000F3F303F00F0343EA020292B22C23B26064
:105B8000F360F3685746143743F40053A760F3609B
:105B9000BDE8F08748790008A0790008E40C0020EF
:105BA0000051250200A24A04044B1A6892B242F046
:105BB0000C021A60024B03221A607047405C0040DE
:105BC000C80E0020054B4FF6FB72196801EA02026D
:105BD0001A604FF43F421A60704700BF405C0040BB
:105BE000072818BF204B10B51F4C18BF187023781A
:105BF000052B35D8DFE803F003070B101823FFF758
:105C0000E1FF062306E0FFF7DDFF042302E00223A5
:105C100063700133237010BD6378013BDBB26370A6
:105C20006378FBB9042218E0104B1A6892B242F074
:105C300010021A6005232370DB18637010BD6378AF
:105C4000013BDBB26370637863B9084A4FF6EF73C8
:105C5000116801EA030313600622034B1A7010BD9A
:105C60000623237010BD00BF240F0020405C0040BD
:105C7000064B01221A60064A00200649186010608F
:105C80004FF4E0520A801A60704700BF405C004049
:105C9000445C00409C0F0020024B187800F001008B
:105CA000704700BFCC0E0020024B1878400800F06F
:105CB00001007047CC0E0020034B1868052814BF64
:105CC00000200120704700BFC80E0020024B18685A
:105CD000003818BF01207047C80E00201B4B70B55C
:105CE0001B680646052B0C462CD1FFF7D5FF10B9D3
:105CF000FFF7DAFF30B3164B1B781BBB402C01D9E2
:105D0000402400E0FCB1124D224629783046C031D3
:105D100000F0FCFF0F4B19680F4B2A7889B2CB18A3
:105D20005B00A2181A600D4B48F6BF72196801EAB1
:105D3000020282F030021A601B682B781B19DBB25A
:105D40002B7000E00024204670BD00BFC80E00206C
:105D5000D00E0020505C00400A300020045C00405F
:105D600010B56420FFF7CBFBBDE8104000F0EABEA1
:105D7000344B354A196810B589B2118033491288FD
:105D8000098801EA020212F4806F05D04FF6FF3253
:105D90001A602F4B5B6898472B4B1A882B4B1B883C
:105DA00003EA020212F4005F03D0264A4DF6FF71A7
:105DB0001160254A1288134013F4805F06D0214BEE
:105DC0004EF6FF721A600020FFF70AFF1E4B1F4AB3
:105DD0001B88128802EA030313F4006F05D0FFF753
:105DE000E3FE184B4FF2FF721A60174B1A88174BDD
:105DF0001B8803EA020212F4007F07D0114A4FF613
:105E0000FF511160134A1168013111600E4A128866
:105E1000134013F4807F06D00A4B4FF6FF621A60DE
:105E20000720FFF7DDFE084B084A1B88128802EAAC
:105E3000030313F4004F03D0BDE8104000F0A8BEE8
:105E400010BD00BF445C0040C40E00209C0F002029
:105E5000EC0D0020C00E002007B514238DF804308F
:105E6000143B8DF805308DF8063001A801338DF80C
:105E7000073000F031FE0EBD20B1054B4FF48052CB
:105E80001A617047024B4FF480525A61704700BF4D
:105E90000010014010B50C2103220748FFF724FA37
:105EA000064B0020DA6942F40002DA61FFF7E4FFF2
:105EB000BDE8104000F050BE00100140001002404C
:105EC000014B00221A707047D00E0020704700006E
:105ED00020B9034B4FF008021B681A820148704733
:105EE000980F0020A80E00207047704708B50C4B93
:105EF0001A68137803F07F03212B0ED1202801D0DC
:105F000021280AD1074B4FF000011870064B51822F
:105F1000936100209847002008BD022008BD00BF03
:105F2000980F0020CF0E0020D15E0008154B1B6893
:105F30001A7802F07F02212A21D102281DD02228BE
:105F40001DD1D878104B00F0030018700F4B1B7850
:105F5000032B12D8DFE803F00802080810F0010054
:105F60000A4B08D1022204E010F00100074B02D1D5
:105F700003221A70704701221A7000207047022015
:105F8000704700BF980F0020CC0E0020CE0E0020DE
:105F900019B9012801D8084670470220704700004F
:105FA000034B1B689B7A13B1024B05221A607047A2
:105FB000980F0020C80E0020014B04221A60704781
:105FC000C80E0020054B1B68DB78022B01D900208E
:105FD0007047034901EBC30100F04EBA980F00204F
:105FE000900E0020014900F047BA00BF7C0E00204F
:105FF000014900F041BA00BF880E002038B53D4B82
:106000006FF03F021B6800245A723B4A9C723B4B64
:106010001460186848F68F1100EA010141F400711C
:106020001960186848F6BF7100EA010181F010019B
:1060300019601168324B89B2CB1840255B001D6096
:10604000136880229BB203F1005303F540535B00B9
:106050001A60204600F0CAFE2A4B20461B6893F8BF
:106060002C1000F041FF204600F0B2FE02204FF459
:10607000C06100F074FE02204FF4807100F0E6FE73
:106080000220202100F078FE0220214600F08AFE46
:106090000320214600F063FE03204FF4887100F0D6
:1060A000E7FE0320294600F01FFF03204FF4405174
:1060B00000F078FE0120214600F051FE0120C021B1
:1060C00000F0C4FE0120202100F056FE01202146F0
:1060D00000F068FE0C4B01221A60204600F0DAF94D
:1060E0000A4B1C700A4B1C700A4B1D700A4B1C702B
:1060F00038BD00BF980F0020505C0040005C00409D
:1061000004300020700F0020C80E0020D10E0020A7
:10611000CD0E0020840E0020D00E0020094B10B5BB
:106120001B6800249C72FFF7A3FD074B074A1C6005
:106130004FF43F431380064A1360FFF78DFE054B73
:106140001C6010BD980F0020445C00409C0F002094
:10615000405C0040C80E0020F7B5032000F0E4FECC
:10616000384BC5B21A78022A37D1013295421A70DB
:1061700033D9013201A84FF4887100F0DEFD9DF89B
:1061800005209DF80430452A01D0002303E0312B7F
:1061900014BF002301239DF80620412A18BF0023C5
:1061A0009DF80720462A18D1BBB1274B4FF0C244B7
:1061B00043F0010C6FF0060E244B184685464FF055
:1061C00001006146224604B402B401B401B401B432
:1061D00001B401B401B4F64670471D4C1D4E23783E
:1061E000EB183F2B0ADC20784FF4887130182A46D0
:1061F00000F0A3FD2378EB18DBB215E027782078B8
:10620000C7F14007FFB230184FF488713A4600F0EA
:1062100094FDEA1B30464FF48871D2B200F08DFD38
:106220002378EB1803F03F0323700B4B03201A78FD
:10623000551BEDB21D70197800F056FE032000F0DA
:10624000C7FDFEBDCE0E0020615D000800080020E5
:10625000D10E0020280F0020840E002010B5074C1E
:1062600020B922684FF00101118210BD044B1B6858
:106270001B68984720680A3010BD00BF980F0020A7
:10628000940F002010B50A4B0A491B684978DA7848
:1062900091420AD3997841B99C8834B99A72064BD5
:1062A0001B685B689847204610BD022010BD00BFE8
:1062B000980F0020780E0020940F002010B5074C96
:1062C00020B922684FF00101118210BD044B1B68F8
:1062D0009B68984720680C3010BD00BF980F0020C5
:1062E000940F002038B50E4C0E4B22681B68507975
:1062F0009B69D178984723689A7A7AB170B91A79EC
:1063000062B99D7855B9084B1B68DB6898472368CC
:1063100028465A79DA72DA781A7338BD022038BD05
:10632000980F0020700F0020940F002008B502463F
:10633000244B20B91B684FF0020119823FE0224A2A
:106340004FF000011B681180197811F07F0112D104
:106350005B7A13F0200F03D0117841F00201117025
:1063600013F0400F184B1A7814BF22F0010242F0CC
:1063700001021A701EE0012921D0022901D0002259
:106380001DE0597901F00F039B0003F1804303F5F1
:10639000B84311F0800F1B6803D003F03003102BBB
:1063A00003E003F44053B3F5805F03D1137843F067
:1063B00001031370054B1B681B699847024A10467E
:1063C00008BD00BF980F0020680F0020940F002028
:1063D00010B51D4B1D4C186894F800C0417921F090
:1063E0008002930003F1804303F5B8431B6811F06A
:1063F000800F14BF03F0300303F44053624521D2F1
:106400004488FCB9F3B1837AE3B1930003F180438C
:1064100011F0800F03F5B843196806D048F6BF7233
:1064200001EA020282F0100205E04BF68F7201EAE7
:10643000020282F480521A60054B1B689B699847E0
:10644000002010BD022010BD980F0020780E002003
:10645000940F002008B5064B1B685A7A42F02002C0
:106460005A72044B1B68DB699847002008BD00BFC7
:10647000980F0020940F0020054B1A68538A18B912
:106480008988CB1A1382704708681818704700BFB4
:10649000980F002030B50E4B1C78002310E05FFAF7
:1064A00083FC4FEA8C0202F1804202F5B842156883
:1064B00048F68F7105EA010141EA0C0111600133D0
:1064C000A342ECD3034B40F08000186030BD00BF06
:1064D000780E00204C5C00407047000008B50C4B63
:1064E000002093F82C1000F0FFFC0A4B1B68187A70
:1064F000082807D1084B4FF480521A80074B4FF001
:1065000010021A80092814BF0020012008BD00BF16
:10651000EC0D0020980F00209E0F0020A00F0020FF
:1065200070B52E4B1C68237A032B01D0052B46D166
:10653000A369228AABB1A2B1A58A954228BF1546AC
:1065400028469847238A06465B1B2382638A0020DD
:10655000EB18638200F0ACFC2A460146304600F09E
:10656000ECFB238A5BB11E4B4FF4405200201A8093
:10657000014600F0ABFC1B4B4FF030021A80238A1F
:10658000A28A9A4203D8154B03221B6803E0134AE0
:106590001BB1136805221A720DE0126806211172F0
:1065A000114A1168114A89B28A18520013600D4BC2
:1065B0004FF030021A80094B1B681B7A06E0072B4C
:1065C00003D10B4B1B68DB6898470823034A12680A
:1065D0001372BDE87040FFF781BF00BF980F002025
:1065E0009E0F0020A00F0020505C004002300020D1
:1065F000700F0020F8B5244B1C68238A267AC3B993
:10660000042E16D1214822490278012A0CD1214AB0
:10661000037012681FFA82FC1F4A62445200136022
:106620004FF030020A802AE04FF010030B8007265B
:1066300025E0A58AAB4294BF042602269D4228BFCE
:106640001D462846A36998470746002000F022FC13
:106650002A460146384600F059FB2946002000F042
:1066600035FC238A4FF030025B1B2382638AED18CE
:10667000074B65821A80094B4FF440521A80024B37
:106680001B681E72F8BD00BF980F0020D20E0020BC
:10669000A00F0020505C0040023000209E0F002020
:1066A00010B5144B1B681A7A022A01D0042A05D1AE
:1066B000FFF7A0FF0F4B1B681B7A14E0062A11D1CD
:1066C0005A78052A0AD11A7812F07F0F06D1D878A5
:1066D000FFF7E0FE084B1B681B6A9847074B1B68D7
:1066E0009B6898470823034A12681372BDE810405C
:1066F000FFF7F4BE980F0020940F0020700F0020C9
:1067000010B5304B1B68187810F07F0004D15A7A0E
:1067100022F020025A7210BD022851D15A88002A54
:106720004ED11A79002A4BD15A7922F08000840088
:1067300004F1804404F5B8442168234C12F0800F22
:1067400094F800C014BF01F0300101F440516045DD
:1067500036D2002934D09B7A002B31D0840004F14A
:10676000804404F5B84412F0800F23680CD003F085
:106770003003102B1ED1C4B2204600F055FB20463A
:10678000302100F0F9FA15E003F44053B3F5805FCF
:1067900010D128B90D4B93F82C1000F0A5FB01E0A7
:1067A00000F030FB22684BF68F7302EA030383F498
:1067B00040532360064B1B685B699847002010BD5F
:1067C000022010BD980F0020780E0020EC0D002054
:1067D000940F00208C4BF7B51A688C4E8C4B92B2FC
:1067E000D31835685B001F682B7A092B1AD0BFB20B
:1067F00007F1005707F540577F003C4614F8013B6E
:106800002B707B780A376B70B4F8030000F09CFBA8
:106810006880B4F80700356800F096FBA8803368FC
:106820007F88DF80794C012322681372D3885578E2
:10683000002B62D1137813F07F032ED1092D02D1E2
:10684000FFF720FD3BE0052D0DD192F90330002B21
:106850004EDB9378002B4BD19388002B48D1937A51
:10686000002B37D044E0032D0BD1D378012B27D157
:1068700093882BBB537A13F0200F21D0FFF7EAFD4A
:106880001DE0012D1CD1D378012B19D19388BBB900
:10689000537A13F0200F13D00AE0012B04D10B2DF3
:1068A0000ED1FFF71FFD0AE0022B09D1012D02D105
:1068B000FFF726FF03E0032D02D1FFF789FD48B162
:1068C000544B28461B685B699847032801D109236C
:1068D0000FE068B94C4B4FF030011A684E4B92B242
:1068E000D3185B0000221A604C4B1980062300E08D
:1068F0000823464A12681372E0E0062D18D1137877
:1069000013F07F0F40F094809378012B03D1414B1B
:106910001B68DB696CE0022B03D13E4B1B681B6AD2
:1069200066E0032B40F084803A4B1B685B6A5FE0B3
:10693000002D3BD1518800297AD1536823F47F433D
:10694000B3F5003F74D1137813F07F0303D193881C
:10695000002B6DD128E0012B0BD12E4B50791B68F9
:106960009B699847002863D123689B7A002B5FD0EE
:106970001AE0022B5CD15379294803F00F018A00F9
:1069800002F1804202F5B8421268007813F0800FDD
:1069900014BF02F0300202F44052814248D213F098
:1069A000700F45D1002A43D01E4B22E0082D05D19F
:1069B000137813F07F0F3BD11B4B1AE00A2D37D110
:1069C000137803F07F03012B32D1937A002B2FD061
:1069D000518869BB536823F47F43B3F5803F27D1C7
:1069E0000C4B50791B689B69984708BB0F4B00E024
:1069F000F3B1064A4FF00001126800205182936102
:106A0000984700201FE000BF505C0040980F002016
:106A100004300020700F002002300020A00F002062
:106A2000780E00202D6300085D620008BD6200083A
:106A3000254B264C1B6822681B6950789847032811
:106A400001D1236806E0214B4FF6FF711B681A8ABB
:106A50008A4201D1092203E0022800D012B908229B
:106A60001A722BE093F90010002921DAD9880191DC
:106A70000198824202D9019A1A8211E08A420FD209
:106A80001149096891F82C108A4201D2002105E0D1
:106A900092FBF1F001FB102212B901210C4A117096
:106AA000094A126892F82C209A82FFF7A3FD05E0AC
:106AB00003221A72074B4FF440521A8003B0BDE80C
:106AC000F040FFF70BBD00BF700F0020980F0020B3
:106AD000D20E00209E0F0020184B30B5DB684478A2
:106AE000DB4303F4E0631B0AC3F1040214FA02F26D
:106AF0000F24DC40817803780C40144303F0030C2E
:106B00004FEACC0C2401FF2004FA0CF400FA0CF03C
:106B10000B4A9908C03152F8215025EA000C04EACA
:106B2000000040EA0C0042F821005909012003F05E
:106B30001F0310FA03F342F8213030BD00ED00E0EE
:106B400000E100E0024A034BDA6000BFFDE700BF4E
:106B50000400FA0500ED00E008B5074A074B0849B4
:106B6000136002221A72074B074A1360074A1B6818
:106B70001160984708BD00BF980F0020780F0020D3
:106B8000540E0020EC0D0020700F0020940F002008
:106B900038B59FE047F6FF7119601388534903F039
:106BA0000F030B70002B69D1514C524D23682168A3
:106BB00003F440532B80504B01F0300119802168C1
:106BC0004BF68F7301EA030383F4005323602168BB
:106BD00048F6BF7301EA030383F0200323601388A0
:106BE00013F0100F04D023689BB213F0800F08D06D
:106BF000226848F60F7302EA03032360FFF750FD93
:106C000016E013F4006F08D0226840F68F7302EA92
:106C100003032360FFF7DEFD0AE013F4004F59D0B1
:106C2000226840F68F7302EA03032360FFF778FCC3
:106C300022684BF68F7302EA03032A8812F4805FFE
:106C400018BF83F4805312F4005F294A18BF83F4FD
:106C500000531360126848F6BF7302EA0303264A22
:106C6000128812F0100F18BF83F0100312F0200FDB
:106C70001F4A18BF83F02003136038BD9B0003F147
:106C8000804303F5B8431C68A4B214F4004F0BD042
:106C9000186840F68F7200EA02021A600A78174BF1
:106CA000013A53F82230984714F0800F12D00F4960
:106CB00048F60F720B789B0003F1804303F5B8434D
:106CC000186800EA02021A600A780D4B013A53F87C
:106CD000223098470B4B0C4A196889B211801188F1
:106CE00009B20029FFF656AF38BD00BF740F00206F
:106CF000005C00409E0F0020A00F0020380E0020F6
