:020000040800F2
:100000002006002081020008E1020008E102000849
:10001000E1020008E1020008E1020008000000001F
:10002000000000000000000000000000E1020008E5
:10003000E102000800000000E1020008250A0008B3
:10004000E1020008E1020008E1020008E102000804
:10005000E1020008E1020008E1020008E1020008F4
:10006000E1020008E1020008E1020008E1020008E4
:10007000E1020008E1020008E1020008E1020008D4
:10008000E1020008E1020008E1020008E1020008C4
:10009000E1020008E1020008E1020008E1020008B4
:1000A000E1020008E1020008E1020008E1020008A4
:1000B000E1020008E1020008E1020008E102000894
:1000C000E1020008E1020008E1020008E102000884
:1000D000E1020008E1020008E1020008E102000874
:1000E000E1020008E1020008E1020008000000004F
:1000F0000000000000000000000000000000000000
:1001000000000000000000005FF808F180B500AFBB
:10011000154B154A126842F001021A60124A124B3E
:100120005968124B0B4053600F4A0F4B1B6823F06A
:10013000847323F4803313600B4B0B4A126822F450
:1001400080221A60084B084A526822F4FE025A6064
:10015000054B4FF41F029A6000F00CF8044B4FF06F
:1001600000629A6080BD00BF001002400000FFF8EE
:1001700000ED00E080B500AF00F002F880BD00BFE8
:1001800080B483B000AF00237B6000233B603A4B18
:10019000394A126842F480321A60374B1B6803F404
:1001A00000333B607B6801337B603B68002B03D1ED
:1001B0007B68B3F5A06FF0D12F4B1B6803F40033BD
:1001C000002B02D001233B6001E000233B603B6831
:1001D000012B4BD1294B294A126842F010021A60B8
:1001E000264B264A126822F003021A60234B234A48
:1001F000126842F002021A601F4B1F4A52685A608E
:100200001D4B1D4A52685A601B4B1B4A526842F4F0
:1002100080625A60184B184A526822F47C125A6065
:10022000154B154A526842F4E8125A60124B124AB2
:10023000126842F080721A6000BF0F4B1B6803F017
:100240000073002BF9D00C4B0B4A526822F00302CA
:100250005A60094B084A526842F002025A6000BFD5
:10026000054B5B6803F00C03082BF9D10C37BD4636
:100270005DF8047B704700BF001002400020024080
:1002800080B582B000AF114B7B60114B3B6007E043
:100290003B681A1D3A607A68111D796012681A600D
:1002A0003A680C4B9A42F3D30B480C494FF00002CA
:1002B0008842B8BF40F8042BFFF6FAAFFFF726FFDD
:1002C00000F0D4FB0837BD4680BD00BFA80E000873
:1002D0000000002014000020140000202002002054
:1002E00080B400AFFEE700BF80B489B000AF786093
:1002F00039600023FB6100233B610023BB610023C5
:10030000FB6000237B610023BB603B68DB7803F06C
:100310000F03FB613B68DB7803F01003002B04D074
:100320003B689B78FA691343FB613B681B88DBB22F
:10033000002B44D07B681B687B610023BB6138E0E5
:10034000BB69012202FA03F3FB603B681B881A4673
:10035000FB6813403B613A69FB689A4226D1BB694E
:100360009B00FB60FB680F2202FA03F3BB60BB68D3
:10037000DB437A6913407B61FB68FA6902FA03F395
:100380007A6913437B613B68DB78282B05D1BB6915
:1003900001229A407B685A6108E03B68DB78482B71
:1003A00004D1BB6901229A407B681A61BB690133A1
:1003B000BB61BB69072BC3D97B687A691A603B684C
:1003C0001B88FF2B46D97B685B687B610023BB6180
:1003D0003AE0BB690833012202FA03F3FB603B6891
:1003E0001B881A46FB6813403B613A69FB689A42D6
:1003F00027D1BB699B00FB60FB680F2202FA03F365
:10040000BB60BB68DB437A6913407B61FB68FA69B8
:1004100002FA03F37A6913437B613B68DB78282B8C
:1004200005D1BB69083301229A407B685A613B6859
:10043000DB78482B05D1BB69083301229A407B68E1
:100440001A61BB690133BB61BB69072BC1D97B68EA
:100450007A695A602437BD465DF8047B704700BF57
:1004600080B483B000AF786013460A467A807B7010
:100470007B78002B03D07A887B681A6102E07A8847
:100480007B685A610C37BD465DF8047B704700BF3E
:1004900080B584B000AF786039607A68204B9A42AA
:1004A00003D10420012100F063FB7A681D4B9A42BE
:1004B00003D10820012100F05BFB7A681A4B9A42B5
:1004C00003D11020012100F053FB7A68174B9A42A8
:1004D00003D12020012100F04BFB7A68144B9A4293
:1004E00003D14020012100F043FB7A68114B9A426E
:1004F00003D18020012100F03BFB01223B6802FA7E
:1005000003F39BB2BB811023FB730323BB7307F17F
:100510000C0378681946FFF7E7FE1037BD4680BD2B
:1005200000080140000C014000100140001401408F
:1005300000180140001C014080B586B000AF4FF4A8
:100540008050012100F014FB0420012100F010FB79
:10055000E0233B800323BB701823FB703B461A4803
:100560001946FFF7C1FE10233B800323BB70102305
:10057000FB703B4614481946FFF7B6FE124810219F
:100580000122FFF76DFF0023BB804FF48273FB80D5
:1005900000233B8102237B810123BB814FF4007345
:1005A000FB8100233B8200237B820723BB823B1D10
:1005B0000648194600F0FAFA0448012100F03AFB17
:1005C0001837BD4680BD00BF000801400030014023
:1005D00080B483B000AF786002E07B68013B7B6051
:1005E0007B68002BF9D10C37BD465DF8047B704762
:1005F00080B500AFFFF7A0FF25480521FFF748FFB2
:10060000234B234AD26842F02002DA6020480B21B3
:10061000FFF73EFF1E480A21FFF73AFF1C4B1C4A1A
:10062000D26822F48062DA604FF47A70FFF7D0FF6C
:10063000174B174AD26842F48062DA604FF47A703E
:10064000FFF7C6FF2120002100F058F8C820002144
:1006500000F054F80520002100F050F8402000215F
:1006600000F04CF81220002100F048F82020002172
:1006700000F044F80820002100F040F80C20002190
:1006800000F03CF800F082F800F004F880BD00BFF4
:10069000000C014080B582B000AF00233B6025E034
:1006A0008020002100F02AF83B68DBB243F04003D1
:1006B000DBB2DBB21846002100F020F800237B609B
:1006C0000EE03B68542202FB03F27B6813440A4AA3
:1006D000D35C1846012100F011F87B6801337B6080
:1006E0007B68532BEDDD3B6801333B603B68052B9A
:1006F000D6DD0837BD4680BD1C00002080B483B025
:1007000000AF02460B46FA71BB711D4B1C4AD26802
:1007100022F02002DA60BB79012B06D1184B184A6F
:10072000D26842F40062DA6005E0154B144AD268E0
:1007300022F40062DA6000BF124B1B899BB203F007
:100740008003002BF8D10F4BFA7992B29A8100BF47
:100750000C4B1B899BB203F08003002BF8D1094B93
:100760009B899BB2DAB2084B1A70054B044AD268D7
:1007700042F02002DA600C37BD465DF8047B70471A
:10078000000C0140003001401400002080B483B010
:1007900000AF00237B6007E0084A7B681344002217
:1007A0001A707B6801337B607B68B3F5FC7FF3DBF9
:1007B0000C37BD465DF8047B704700BF1C0000206D
:1007C00080B485B000AF13460246FA710A46BA718A
:1007D0007B710023FB600023BB60FB79542B00D9A5
:1007E00032E0BB79302B00D92EE0FA7913465B005A
:1007F00013445B001A46BB79542101FB03F31344F5
:10080000FB600023BB601CE0BB68052B06D1FB68C6
:100810005A1CFA600F4A0021D1540FE0FA68531CA9
:10082000FB607B79A3F120010B480B469B000B4436
:10083000B9680B4403441978064B9954BB680133DB
:10084000BB60BB68052BDFD91437BD465DF8047B60
:10085000704700BF1C000020740C000880B485B0F5
:1008600000AF13460246FA710A46BA717B71002343
:10087000FB600023BB60FB79542B00D934E0BB79CB
:10088000302B00D930E0FA7913465B0013445B004B
:100890001A46BB79542101FB03F31344FB60002388
:1008A000BB601EE0BB68052B06D1FB685A1CFA60D2
:1008B000104AFF21D15411E0FA68531CFB607B7988
:1008C000A3F120010C480B469B000B44B9680B4474
:1008D00003441B78DB43D9B2064B9954BB68013300
:1008E000BB60BB68052BDDD91437BD465DF8047BC2
:1008F000704700BF1C000020740C000880B582B057
:1009000000AF0346FB7121200021FFF7F7FEFB79C2
:1009100063F07F03DBB218460021FFF7EFFE2020D3
:100920000021FFF7EBFE0837BD4680BD80B584B0DF
:1009300000AF396013460246FA71BB710023FB73A6
:100940001BE0BB79002B09D03B681B78F97BFA7957
:10095000084611461A46FFF781FF08E03B681B78FE
:10096000F97BFA79084611461A46FFF729FFFB7B07
:100970000133FB733B6801333B603B681B78002B02
:10098000DFD1FFF787FE1037BD4680BD80B483B04E
:1009900000AF03463960FB7197F90730002B0BDA83
:1009A0000D49FB7903F00F03043B3A68D2B2120100
:1009B000D2B20B441A7609E0084997F907303A6831
:1009C000D2B21201D2B20B4483F800230C37BD46D9
:1009D0005DF8047B704700BF00ED00E000E100E03F
:1009E00080B582B000AF78607B68B3F1807F01D3BF
:1009F000012311E00A4B7A6822F07F42013A5A60E3
:100A00004FF0FF300F21FFF7C1FF054B00229A6026
:100A1000034B07221A60002318460837BD4680BDE5
:100A200010E000E080B400AF044B1B685A1C034B7D
:100A30001A60BD465DF8047B704700BF1C020020B1
:100A400080B485B000AF7860074B1B68FB6000BFC7
:100A5000054B1A68FB68D21A7B689A42F8D31437A0
:100A6000BD465DF8047B70471C02002080B582B053
:100A700000AF00237B60FFF749FB334B1A68334B11
:100A8000A3FB02139B091846FFF7AAFF04200121CC
:100A900000F06EF82E4B1022DA702D4B02221A80D5
:100AA0002B4B03229A702B482949FFF71DFCFFF7B7
:100AB0009FFD7020FFF722FF7B68DBB200202649F4
:100AC0001A46FFF733FF7B68002B14BF0023012376
:100AD000DBB2012021491A46FFF728FF7B68DBB211
:100AE00002201F491A46FFF721FF7B68002B14BF25
:100AF00000230123DBB203201A491A46FFF716FF31
:100B00007B68DBB2042018491A46FFF70FFF7B68A9
:100B1000002B14BF00230123DBB2052013491A4622
:100B2000FFF704FF40F2DC50FFF78AFF094802217B
:100B30000122FFF795FC6420FFF782FF05480221A0
:100B40000022FFF78DFCEDE700000020D34D62107E
:100B500018020020000801404C0E00085C0E00083E
:100B60006C0E00087C0E00088C0E00089C0E00081D
:100B700080B483B000AF78600B46FB70FB78002B2D
:100B800006D0094B084A91697A680A439A6106E0DF
:100B9000054B054A91697A68D2430A409A610C373D
:100BA000BD465DF8047B70470010024080B485B0FC
:100BB00000AF786039600023FB817B681B88FB8174
:100BC000FB8903F44153FB813B681A883B685B88CF
:100BD00013439AB23B689B8813439AB23B68DB8805
:100BE00013439AB23B681B8913439AB23B685B89F3
:100BF00013439AB23B689B8913439AB23B68DB89E3
:100C000013439AB2FB891343FB817B68FA891A80EC
:100C10007B689B8B9BB223F400639AB27B689A83B8
:100C20003B681A8A7B681A821437BD465DF8047BDC
:100C3000704700BF80B483B000AF78600B46FB7094
:100C4000FB78002B08D07B681B889BB243F04003E5
:100C50009AB27B681A8007E07B681B889BB223F0FE
:100C600040039AB27B681A800C37BD465DF8047B5E
:100C7000704700BF000000000000002F00000007C8
:100C8000000700147F147F14242A7F2A12C4C8107E
:100C9000264636495522500005030000001C22411B
:100CA000000041221C0014083E081408083E0808F1
:100CB0000000503000101010101000606000002084
:100CC000100804023E5149453E00427F4000426107
:100CD0005149462141454B311814127F1027454593
:100CE00045393C4A494930017109050336494949AA
:100CF00036064949291E00363600000056360000E7
:100D0000081422410014141414140041221408027F
:100D100001510906324959513E7E1111117E7F4918
:100D20004949363E414141227F4141221C7F494988
:100D300049417F090909013E4149497A7F0808086C
:100D40007F00417F41002040413F017F0814224144
:100D50007F404040407F020C027F7F0408107F3EAE
:100D60004141413E7F090909063E4151215E7F090B
:100D7000192946464949493101017F01013F404057
:100D8000403F1F2040201F3F4038403F631408145D
:100D90006307087008076151494543007F414100DE
:100DA000552A552A550041417F00040201020440A2
:100DB00040404040000102040020545454787F48D1
:100DC0004444383844444420384444487F385454D8
:100DD0005418087E0901020C5252523E7F08040446
:100DE0007800447D40002040443D007F10284400AE
:100DF00000417F40007C041804787C0804047838A3
:100E0000444444387C14141408081414187C7C08D6
:100E10000404084854545420043F4440203C4040BB
:100E2000207C1C2040201C3C4030403C44281028A2
:100E3000440C5050503C4464544C44086C6A1908AB
:100E40000C1224120C7E7E7E7E7E00002A2A2A202E
:100E50004F4C494D4558202A2A2A0000202053543F
:100E60004D33322D50313033202000002020646576
:100E70006D6F2020666F72202020000020204D4FD3
:100E8000442D4C434433333130200000202075730F
:100E9000696E6720535049202020000020204154D3
:080EA0004920202000000000A1
:100EA80000A24A0400000000000000000102030440
:040EB8000607080918
:0400000508000000EF
:00000001FF
