:020000040800F2
:100000003004002081020008E1020008E10200083B
:10001000E1020008E1020008E1020008000000001F
:10002000000000000000000000000000E1020008E5
:10003000E102000800000000E1020008A505000838
:10004000E1020008E1020008E1020008E102000804
:10005000E1020008E1020008E1020008E1020008F4
:10006000E1020008E1020008E1020008E1020008E4
:10007000E1020008E1020008E1020008E1020008D4
:10008000E1020008E1020008E1020008E1020008C4
:10009000E1020008E1020008E1020008ED050008A5
:1000A000E1020008E1020008E1020008E1020008A4
:1000B000E1020008E1020008E1020008E102000894
:1000C000E1020008E1020008E1020008E102000884
:1000D000E1020008E1020008E1020008E102000874
:1000E000E1020008E1020008E1020008000000004F
:1000F0000000000000000000000000000000000000
:1001000000000000000000005FF808F180B500AFBB
:10011000154B154A126842F001021A60124A124B3E
:100120005968124B0B4053600F4A0F4B1B6823F06A
:10013000847323F4803313600B4B0B4A126822F450
:1001400080221A60084B084A526822F4FE025A6064
:10015000054B4FF41F029A6000F00CF8044B4FF06F
:1001600000629A6080BD00BF001002400000FFF8EE
:1001700000ED00E080B500AF00F002F880BD00BFE8
:1001800080B483B000AF00237B6000233B603A4B18
:10019000394A126842F480321A60374B1B6803F404
:1001A00000333B607B6801337B603B68002B03D1ED
:1001B0007B68B3F5A06FF0D12F4B1B6803F40033BD
:1001C000002B02D001233B6001E000233B603B6831
:1001D000012B4BD1294B294A126842F010021A60B8
:1001E000264B264A126822F003021A60234B234A48
:1001F000126842F002021A601F4B1F4A52685A608E
:100200001D4B1D4A52685A601B4B1B4A526842F4F0
:1002100080625A60184B184A526822F47C125A6065
:10022000154B154A526842F4E8125A60124B124AB2
:10023000126842F080721A6000BF0F4B1B6803F017
:100240000073002BF9D00C4B0B4A526822F00302CA
:100250005A60094B084A526842F002025A6000BFD5
:10026000054B5B6803F00C03082BF9D10C37BD4636
:100270005DF8047B704700BF001002400020024080
:1002800080B582B000AF114B7B60114B3B6007E043
:100290003B681A1D3A607A68111D796012681A600D
:1002A0003A680C4B9A42F3D30B480C494FF00002CA
:1002B0008842B8BF40F8042BFFF6FAAFFFF726FFDD
:1002C00000F01AFA0837BD4680BD00BF700900086B
:1002D0000000002014000020140000203000002046
:1002E00080B400AFFEE700BF80B489B000AF786093
:1002F00039600023FB6100233B610023BB610023C5
:10030000FB6000237B610023BB603B68DB7803F06C
:100310000F03FB613B68DB7803F01003002B04D074
:100320003B689B78FA691343FB613B681B88DBB22F
:10033000002B44D07B681B687B610023BB6138E0E5
:10034000BB69012202FA03F3FB603B681B881A4673
:10035000FB6813403B613A69FB689A4226D1BB694E
:100360009B00FB60FB680F2202FA03F3BB60BB68D3
:10037000DB437A6913407B61FB68FA6902FA03F395
:100380007A6913437B613B68DB78282B05D1BB6915
:1003900001229A407B685A6108E03B68DB78482B71
:1003A00004D1BB6901229A407B681A61BB690133A1
:1003B000BB61BB69072BC3D97B687A691A603B684C
:1003C0001B88FF2B46D97B685B687B610023BB6180
:1003D0003AE0BB690833012202FA03F3FB603B6891
:1003E0001B881A46FB6813403B613A69FB689A42D6
:1003F00027D1BB699B00FB60FB680F2202FA03F365
:10040000BB60BB68DB437A6913407B61FB68FA69B8
:1004100002FA03F37A6913437B613B68DB78282B8C
:1004200005D1BB69083301229A407B685A613B6859
:10043000DB78482B05D1BB69083301229A407B68E1
:100440001A61BB690133BB61BB69072BC1D97B68EA
:100450007A695A602437BD465DF8047B704700BF57
:1004600080B483B000AF786013460A467A807B7010
:100470007B78002B03D07A887B681A6102E07A8847
:100480007B685A610C37BD465DF8047B704700BF3E
:1004900090B484B000AF02460B46FA71BB710023E2
:1004A000FB60BB7903F003039B000F2202FA03F306
:1004B000FB60154BBA799208D2B21349B87980081B
:1004C000C0B2023051F82000F968C943014002323D
:1004D00043F822100C4BBA799208D2B20A49B87983
:1004E0008008C0B2023051F82000FC79B97901F0DF
:1004F0000301890004FA01F10143023243F822109A
:100500001037BD4690BC70470000014080B483B0F6
:1005100000AF03463960FB7197F90730002B0BDA07
:100520000D49FB7903F00F03043B3A68D2B2120184
:10053000D2B20B441A7609E0084997F907303A68B5
:10054000D2B21201D2B20B4483F800230C37BD465D
:100550005DF8047B704700BF00ED00E000E100E0C3
:1005600080B582B000AF78607B68B3F1807F01D343
:10057000012311E00A4B7A6822F07F42013A5A6067
:100580004FF0FF300F21FFF7C1FF054B00229A60AB
:10059000034B07221A60002318460837BD4680BD6A
:1005A00010E000E080B400AF044B1B685A1C034B02
:1005B0001A60BD465DF8047B704700BF2000002034
:1005C00080B485B000AF7860074B1B68FB6000BF4C
:1005D000054B1A68FB68D21A7B689A42F8D3143725
:1005E000BD465DF8047B70472000002080B500AF59
:1005F0004FF4007000F018F90346002B02D0044BB2
:1006000001221A604FF4007000F032F980BD00BF83
:100610001400002080B500AFFFF778FD2E4B1A685C
:100620002E4BA3FB02139B091846FFF799FF2C4B97
:100630002B4A926942F004029A61294B284A926936
:1006400042F010029A61264B254A926942F001025B
:100650009A61244B1022DA70224B22221A80214BFD
:1006600002229A7020481F49FFF73EFE1D4B0422CC
:10067000DA701C4B4FF400721A801A4B03229A70E6
:100680001A481849FFF730FE4FF4C06000F0FEF83A
:10069000174B17221A70164B01225A70144B012265
:1006A0009A70134B0122DA70114800F001F9022010
:1006B0000921FFF7EDFE0F4B4FF400721A600D4B4E
:1006C00000221A710B4B08225A710A4B01229A71AF
:1006D000084800F03BF880BD00000020D34D6210B8
:1006E000001002401C0000200008014000100140E2
:1006F000240000202800002080B500AFFFF78AFF0B
:10070000104B1B68012B1CD10F4820210022FFF742
:10071000A7FE0D4802210122FFF7A2FE4FF47A70D6
:10072000FFF74EFF084802210022FFF799FE064816
:1007300020210122FFF794FE4FF47A70FFF740FF6B
:10074000DEE7DDE7140000200008014080B485B03A
:1007500000AF78600023FB60324BFB607B689B79C5
:10076000002B4DD02F4B2F4A11687A681268D24364
:100770000A401A602B4B2B4A51687A681268D243A0
:100780000A405A607B681B79FA681344FB60FB6877
:10079000FA6811687A6812680A431A60214B214A84
:1007A00091687A681268D2430A409A601D4B1D4ACC
:1007B000D1687A681268D2430A40DA607B685B7954
:1007C000102B0ED1174B174A91687A6812680A43AA
:1007D0009A60144B134AD1687A6812680A43DA6047
:1007E0001BE0104BFB607B685B79FA681344FB608D
:1007F000FB68FA6811687A6812680A431A600CE0AC
:100800007B681B79FA681344FB60FB68FA6811681F
:100810007A681268D2430A401A601437BD465DF800
:10082000047B70470004014080B485B000AF78605D
:100830000023FB730023BB600C4B1A687B681340DA
:10084000BB600A4B5A697B681340002B05D0BB681C
:10085000002B02D00123FB7301E00023FB73FB7B21
:1008600018461437BD465DF8047B7047000401400C
:1008700080B483B000AF7860034B7A685A610C375C
:10088000BD465DF8047B70470004014080B483B02E
:1008900000AF7860054A7B6843F0BF6343F40033E0
:1008A000D3600C37BD465DF8047B704700ED00E077
:1008B00080B487B000AF786000237B6100233B6188
:1008C0000F23FB607B68DB78002B38D0264BDB687E
:1008D000DB4303F4E0631B0A7B617B69C3F1040320
:1008E0003B617B69FA6822FA03F3FB607B685B7803
:1008F0001A463B6902FA03F37B617B689B781A46D0
:10090000FB6813407A6913437B617B691B017B6140
:1009100016497B681B787A69D2B20B4483F80023AE
:10092000124B7A6812785209D2B27968097801F0CC
:100930001F01012000FA01F143F822100EE00B4BD9
:100940007A6812785209D2B27968097801F01F01E9
:10095000012000FA01F1203243F822101C37BD4675
:100960005DF8047B704700BF00ED00E000E100E0AF
:1009700000A24A040000000000000000010203047D
:040980000607080955
:0400000508000000EF
:00000001FF
